{
  "abi": [
    {
      "inputs": [
        {
          "internalType": "contract IERC20",
          "name": "_gcoin",
          "type": "address"
        }
      ],
      "stateMutability": "nonpayable",
      "type": "constructor"
    },
    {
      "anonymous": false,
      "inputs": [
        {
          "indexed": true,
          "internalType": "address",
          "name": "previousOwner",
          "type": "address"
        },
        {
          "indexed": true,
          "internalType": "address",
          "name": "newOwner",
          "type": "address"
        }
      ],
      "name": "OwnershipTransferred",
      "type": "event"
    },
    {
      "inputs": [
        {
          "internalType": "address",
          "name": "_staker",
          "type": "address"
        }
      ],
      "name": "availableRewards",
      "outputs": [
        {
          "internalType": "uint256",
          "name": "",
          "type": "uint256"
        }
      ],
      "stateMutability": "view",
      "type": "function"
    },
    {
      "inputs": [],
      "name": "claimRewards",
      "outputs": [],
      "stateMutability": "nonpayable",
      "type": "function"
    },
    {
      "inputs": [],
      "name": "gcoin",
      "outputs": [
        {
          "internalType": "contract IERC20",
          "name": "",
          "type": "address"
        }
      ],
      "stateMutability": "view",
      "type": "function"
    },
    {
      "inputs": [
        {
          "internalType": "address",
          "name": "_staker",
          "type": "address"
        }
      ],
      "name": "getStakedTokens",
      "outputs": [
        {
          "internalType": "uint256",
          "name": "",
          "type": "uint256"
        }
      ],
      "stateMutability": "view",
      "type": "function"
    },
    {
      "inputs": [
        {
          "internalType": "uint256",
          "name": "_newRewards",
          "type": "uint256"
        }
      ],
      "name": "newRewardsTotal",
      "outputs": [],
      "stateMutability": "nonpayable",
      "type": "function"
    },
    {
      "inputs": [],
      "name": "owner",
      "outputs": [
        {
          "internalType": "address",
          "name": "",
          "type": "address"
        }
      ],
      "stateMutability": "view",
      "type": "function"
    },
    {
      "inputs": [],
      "name": "renounceOwnership",
      "outputs": [],
      "stateMutability": "nonpayable",
      "type": "function"
    },
    {
      "inputs": [
        {
          "internalType": "uint256",
          "name": "_coinsToDistrubute",
          "type": "uint256"
        }
      ],
      "name": "scoreToRewards",
      "outputs": [],
      "stateMutability": "nonpayable",
      "type": "function"
    },
    {
      "inputs": [
        {
          "internalType": "address",
          "name": "_staker",
          "type": "address"
        }
      ],
      "name": "seeRewardScore",
      "outputs": [
        {
          "internalType": "uint256",
          "name": "",
          "type": "uint256"
        }
      ],
      "stateMutability": "view",
      "type": "function"
    },
    {
      "inputs": [
        {
          "internalType": "uint256",
          "name": "_numcoins",
          "type": "uint256"
        }
      ],
      "name": "stake",
      "outputs": [],
      "stateMutability": "nonpayable",
      "type": "function"
    },
    {
      "inputs": [
        {
          "internalType": "address",
          "name": "",
          "type": "address"
        }
      ],
      "name": "stakers",
      "outputs": [
        {
          "internalType": "uint256",
          "name": "totalAmountStaked",
          "type": "uint256"
        },
        {
          "internalType": "uint256",
          "name": "timeLastUpdated",
          "type": "uint256"
        },
        {
          "internalType": "uint256",
          "name": "rewardScore",
          "type": "uint256"
        },
        {
          "internalType": "uint256",
          "name": "unclaimedRewards",
          "type": "uint256"
        }
      ],
      "stateMutability": "view",
      "type": "function"
    },
    {
      "inputs": [
        {
          "internalType": "address",
          "name": "newOwner",
          "type": "address"
        }
      ],
      "name": "transferOwnership",
      "outputs": [],
      "stateMutability": "nonpayable",
      "type": "function"
    },
    {
      "inputs": [
        {
          "internalType": "address",
          "name": "_staker",
          "type": "address"
        }
      ],
      "name": "updateRewardScore",
      "outputs": [],
      "stateMutability": "nonpayable",
      "type": "function"
    },
    {
      "inputs": [],
      "name": "viewRewardsTotal",
      "outputs": [
        {
          "internalType": "uint256",
          "name": "",
          "type": "uint256"
        }
      ],
      "stateMutability": "view",
      "type": "function"
    },
    {
      "inputs": [
        {
          "internalType": "uint256",
          "name": "_numcoins",
          "type": "uint256"
        }
      ],
      "name": "withdraw",
      "outputs": [],
      "stateMutability": "nonpayable",
      "type": "function"
    }
  ],
  "devdoc": {
    "kind": "dev",
    "methods": {
      "owner()": {
        "details": "Returns the address of the current owner."
      },
      "renounceOwnership()": {
        "details": "Leaves the contract without owner. It will not be possible to call `onlyOwner` functions anymore. Can only be called by the current owner. NOTE: Renouncing ownership will leave the contract without an owner, thereby removing any functionality that is only available to the owner."
      },
      "transferOwnership(address)": {
        "details": "Transfers ownership of the contract to a new account (`newOwner`). Can only be called by the current owner."
      }
    },
    "version": 1
  },
  "evm": {
    "assembly": "    /* \"gcoin-staking.sol\":314:5424  contract gcoinStaking is ReentrancyGuard, Ownable {... */\n  mstore(0x40, 0xa0)\n    /* \"gcoin-staking.sol\":888:889  0 */\n  0x00\n    /* \"gcoin-staking.sol\":857:889  uint256 private rewardsTotal = 0 */\n  0x02\n  sstore\n    /* \"gcoin-staking.sol\":475:525  constructor(IERC20 _gcoin){... */\n  callvalue\n  dup1\n  iszero\n  tag_1\n  jumpi\n  0x00\n  dup1\n  revert\ntag_1:\n  pop\n  mload(0x40)\n  sub(codesize, bytecodeSize)\n  dup1\n  bytecodeSize\n  dup4\n  codecopy\n  dup2\n  add\n  0x40\n  dup2\n  swap1\n  mstore\n  tag_2\n  swap2\n  tag_3\n  jump\t// in\ntag_2:\n    /* \"@openzeppelin/contracts/security/ReentrancyGuard.sol\":1701:1702   */\n  0x01\n    /* \"@openzeppelin/contracts/security/ReentrancyGuard.sol\":1806:1813   */\n  0x00\n    /* \"@openzeppelin/contracts/security/ReentrancyGuard.sol\":1806:1828   */\n  sstore\n    /* \"@openzeppelin/contracts/access/Ownable.sol\":936:968   */\n  tag_9\n    /* \"@openzeppelin/contracts/utils/Context.sol\":719:729   */\n  caller\n    /* \"@openzeppelin/contracts/access/Ownable.sol\":936:954   */\n  tag_12\n    /* \"@openzeppelin/contracts/access/Ownable.sol\":936:968   */\n  jump\t// in\ntag_9:\n  sub(shl(0xa0, 0x01), 0x01)\n    /* \"gcoin-staking.sol\":506:520  gcoin = _gcoin */\n  and\n  0x80\n  mstore\n    /* \"gcoin-staking.sol\":314:5424  contract gcoinStaking is ReentrancyGuard, Ownable {... */\n  jump(tag_17)\n    /* \"@openzeppelin/contracts/access/Ownable.sol\":2433:2620   */\ntag_12:\n    /* \"@openzeppelin/contracts/access/Ownable.sol\":2525:2531   */\n  0x01\n  dup1\n  sload\n  sub(shl(0xa0, 0x01), 0x01)\n    /* \"@openzeppelin/contracts/access/Ownable.sol\":2541:2558   */\n  dup4\n  dup2\n  and\n  not(sub(shl(0xa0, 0x01), 0x01))\n  dup4\n  and\n  dup2\n  or\n  swap1\n  swap4\n  sstore\n    /* \"@openzeppelin/contracts/access/Ownable.sol\":2573:2613   */\n  mload(0x40)\n    /* \"@openzeppelin/contracts/access/Ownable.sol\":2525:2531   */\n  swap2\n  and\n  swap2\n    /* \"@openzeppelin/contracts/access/Ownable.sol\":2541:2558   */\n  swap1\n    /* \"@openzeppelin/contracts/access/Ownable.sol\":2525:2531   */\n  dup3\n  swap1\n    /* \"@openzeppelin/contracts/access/Ownable.sol\":2573:2613   */\n  0x8be0079c531659141344cd1fd0a4f28419497f9722a3daafe3b4186f6b6457e0\n  swap1\n    /* \"@openzeppelin/contracts/access/Ownable.sol\":2506:2522   */\n  0x00\n  swap1\n    /* \"@openzeppelin/contracts/access/Ownable.sol\":2573:2613   */\n  log3\n    /* \"@openzeppelin/contracts/access/Ownable.sol\":2496:2620   */\n  pop\n    /* \"@openzeppelin/contracts/access/Ownable.sol\":2433:2620   */\n  pop\n  jump\t// out\n    /* \"#utility.yul\":14:318   */\ntag_3:\n    /* \"#utility.yul\":98:104   */\n  0x00\n    /* \"#utility.yul\":151:153   */\n  0x20\n    /* \"#utility.yul\":139:148   */\n  dup3\n    /* \"#utility.yul\":130:137   */\n  dup5\n    /* \"#utility.yul\":126:149   */\n  sub\n    /* \"#utility.yul\":122:154   */\n  slt\n    /* \"#utility.yul\":119:171   */\n  iszero\n  tag_19\n  jumpi\n    /* \"#utility.yul\":167:168   */\n  0x00\n    /* \"#utility.yul\":164:165   */\n  dup1\n    /* \"#utility.yul\":157:169   */\n  revert\n    /* \"#utility.yul\":119:171   */\ntag_19:\n    /* \"#utility.yul\":193:209   */\n  dup2\n  mload\n  sub(shl(0xa0, 0x01), 0x01)\n    /* \"#utility.yul\":238:269   */\n  dup2\n  and\n    /* \"#utility.yul\":228:270   */\n  dup2\n  eq\n    /* \"#utility.yul\":218:288   */\n  tag_20\n  jumpi\n    /* \"#utility.yul\":284:285   */\n  0x00\n    /* \"#utility.yul\":281:282   */\n  dup1\n    /* \"#utility.yul\":274:286   */\n  revert\n    /* \"#utility.yul\":218:288   */\ntag_20:\n    /* \"#utility.yul\":307:312   */\n  swap4\n    /* \"#utility.yul\":14:318   */\n  swap3\n  pop\n  pop\n  pop\n  jump\t// out\ntag_17:\n    /* \"gcoin-staking.sol\":314:5424  contract gcoinStaking is ReentrancyGuard, Ownable {... */\n  mload(0x80)\n  codecopy(0x00, dataOffset(sub_0), dataSize(sub_0))\n  0x00\n  assignImmutable(\"0x277ab82e5a4641341820a4a2933a62c1de997e42e92548657ae21b3728d580fe\")\n  return(0x00, dataSize(sub_0))\nstop\n\nsub_0: assembly {\n        /* \"gcoin-staking.sol\":314:5424  contract gcoinStaking is ReentrancyGuard, Ownable {... */\n      mstore(0x40, 0x80)\n      callvalue\n      dup1\n      iszero\n      tag_1\n      jumpi\n      0x00\n      dup1\n      revert\n    tag_1:\n      pop\n      jumpi(tag_2, lt(calldatasize, 0x04))\n      shr(0xe0, calldataload(0x00))\n      dup1\n      0x8da5cb5b\n      gt\n      tag_18\n      jumpi\n      dup1\n      0xa694fc3a\n      gt\n      tag_19\n      jumpi\n      dup1\n      0xa694fc3a\n      eq\n      tag_14\n      jumpi\n      dup1\n      0xee5fa713\n      eq\n      tag_15\n      jumpi\n      dup1\n      0xf2fde38b\n      eq\n      tag_16\n      jumpi\n      dup1\n      0xf854a27f\n      eq\n      tag_17\n      jumpi\n      0x00\n      dup1\n      revert\n    tag_19:\n      dup1\n      0x8da5cb5b\n      eq\n      tag_10\n      jumpi\n      dup1\n      0x9168ae72\n      eq\n      tag_11\n      jumpi\n      dup1\n      0x9d43e5e0\n      eq\n      tag_12\n      jumpi\n      dup1\n      0xa13e1fc3\n      eq\n      tag_13\n      jumpi\n      0x00\n      dup1\n      revert\n    tag_18:\n      dup1\n      0x63c28db1\n      gt\n      tag_20\n      jumpi\n      dup1\n      0x63c28db1\n      eq\n      tag_6\n      jumpi\n      dup1\n      0x6e83ca62\n      eq\n      tag_7\n      jumpi\n      dup1\n      0x715018a6\n      eq\n      tag_8\n      jumpi\n      dup1\n      0x8c9c1158\n      eq\n      tag_9\n      jumpi\n      0x00\n      dup1\n      revert\n    tag_20:\n      dup1\n      0x2e1a7d4d\n      eq\n      tag_3\n      jumpi\n      dup1\n      0x372500ab\n      eq\n      tag_4\n      jumpi\n      dup1\n      0x5f05927a\n      eq\n      tag_5\n      jumpi\n    tag_2:\n      0x00\n      dup1\n      revert\n        /* \"gcoin-staking.sol\":2073:2703  function withdraw (uint256 _numcoins) external nonReentrant{... */\n    tag_3:\n      tag_21\n      tag_22\n      calldatasize\n      0x04\n      tag_23\n      jump\t// in\n    tag_22:\n      tag_24\n      jump\t// in\n    tag_21:\n      stop\n        /* \"gcoin-staking.sol\":2708:3284  function claimRewards() external{\t//to send users rewards they have gotten from last period... */\n    tag_4:\n      tag_21\n      tag_26\n      jump\t// in\n        /* \"gcoin-staking.sol\":3289:4299  function scoreToRewards(uint _coinsToDistrubute) public {\t//used for the end of the period, to change users reward scores to 0 and add to their unclaimed rewards... */\n    tag_5:\n      tag_21\n      tag_28\n      calldatasize\n      0x04\n      tag_23\n      jump\t// in\n    tag_28:\n      tag_29\n      jump\t// in\n        /* \"gcoin-staking.sol\":4989:5113  function getStakedTokens( address _staker ) public view returns (uint256){... */\n    tag_6:\n      tag_30\n      tag_31\n      calldatasize\n      0x04\n      tag_32\n      jump\t// in\n    tag_31:\n      sub(shl(0xa0, 0x01), 0x01)\n        /* \"gcoin-staking.sol\":5074:5090  stakers[_staker] */\n      and\n        /* \"gcoin-staking.sol\":5054:5061  uint256 */\n      0x00\n        /* \"gcoin-staking.sol\":5074:5090  stakers[_staker] */\n      swap1\n      dup2\n      mstore\n        /* \"gcoin-staking.sol\":5074:5081  stakers */\n      0x03\n        /* \"gcoin-staking.sol\":5074:5090  stakers[_staker] */\n      0x20\n      mstore\n      0x40\n      swap1\n      keccak256\n        /* \"gcoin-staking.sol\":5074:5108  stakers[_staker].totalAmountStaked */\n      sload\n      swap1\n        /* \"gcoin-staking.sol\":4989:5113  function getStakedTokens( address _staker ) public view returns (uint256){... */\n      jump\n    tag_30:\n      mload(0x40)\n        /* \"#utility.yul\":659:684   */\n      swap1\n      dup2\n      mstore\n        /* \"#utility.yul\":647:649   */\n      0x20\n        /* \"#utility.yul\":632:650   */\n      add\n        /* \"gcoin-staking.sol\":4989:5113  function getStakedTokens( address _staker ) public view returns (uint256){... */\n    tag_34:\n      mload(0x40)\n      dup1\n      swap2\n      sub\n      swap1\n      return\n        /* \"gcoin-staking.sol\":5332:5419  function viewRewardsTotal () public view returns (uint256){... */\n    tag_7:\n        /* \"gcoin-staking.sol\":5402:5414  rewardsTotal */\n      sload(0x02)\n        /* \"gcoin-staking.sol\":5332:5419  function viewRewardsTotal () public view returns (uint256){... */\n      jump(tag_30)\n        /* \"@openzeppelin/contracts/access/Ownable.sol\":1831:1932   */\n    tag_8:\n      tag_21\n      tag_40\n      jump\t// in\n        /* \"gcoin-staking.sol\":424:453  IERC20 public immutable gcoin */\n    tag_9:\n      tag_41\n      immutable(\"0x277ab82e5a4641341820a4a2933a62c1de997e42e92548657ae21b3728d580fe\")\n      dup2\n      jump\n    tag_41:\n      mload(0x40)\n      sub(shl(0xa0, 0x01), 0x01)\n        /* \"#utility.yul\":873:928   */\n      swap1\n      swap2\n      and\n        /* \"#utility.yul\":855:929   */\n      dup2\n      mstore\n        /* \"#utility.yul\":843:845   */\n      0x20\n        /* \"#utility.yul\":828:846   */\n      add\n        /* \"gcoin-staking.sol\":424:453  IERC20 public immutable gcoin */\n      tag_34\n        /* \"#utility.yul\":695:935   */\n      jump\n        /* \"@openzeppelin/contracts/access/Ownable.sol\":1201:1286   */\n    tag_10:\n        /* \"@openzeppelin/contracts/access/Ownable.sol\":1273:1279   */\n      and(sub(shl(0xa0, 0x01), 0x01), sload(0x01))\n        /* \"@openzeppelin/contracts/access/Ownable.sol\":1201:1286   */\n      jump(tag_41)\n        /* \"gcoin-staking.sol\":941:982  mapping(address => Staker) public stakers */\n    tag_11:\n      tag_49\n      tag_50\n      calldatasize\n      0x04\n      tag_32\n      jump\t// in\n    tag_50:\n      0x03\n      0x20\n      dup2\n      swap1\n      mstore\n      0x00\n      swap2\n      dup3\n      mstore\n      0x40\n      swap1\n      swap2\n      keccak256\n      dup1\n      sload\n      0x01\n      dup3\n      add\n      sload\n      0x02\n      dup4\n      add\n      sload\n      swap3\n      swap1\n      swap4\n      add\n      sload\n      swap1\n      swap3\n      swap2\n      swap1\n      dup5\n      jump\n    tag_49:\n      0x40\n      dup1\n      mload\n        /* \"#utility.yul\":1402:1427   */\n      swap5\n      dup6\n      mstore\n        /* \"#utility.yul\":1458:1460   */\n      0x20\n        /* \"#utility.yul\":1443:1461   */\n      dup6\n      add\n        /* \"#utility.yul\":1436:1470   */\n      swap4\n      swap1\n      swap4\n      mstore\n        /* \"#utility.yul\":1486:1504   */\n      swap2\n      dup4\n      add\n        /* \"#utility.yul\":1479:1513   */\n      mstore\n        /* \"#utility.yul\":1544:1546   */\n      0x60\n        /* \"#utility.yul\":1529:1547   */\n      dup3\n      add\n        /* \"#utility.yul\":1522:1556   */\n      mstore\n        /* \"#utility.yul\":1389:1392   */\n      0x80\n        /* \"#utility.yul\":1374:1393   */\n      add\n        /* \"gcoin-staking.sol\":941:982  mapping(address => Staker) public stakers */\n      tag_34\n        /* \"#utility.yul\":1171:1562   */\n      jump\n        /* \"gcoin-staking.sol\":4687:4861  function updateRewardScore( address _staker ) public{... */\n    tag_12:\n      tag_21\n      tag_55\n      calldatasize\n      0x04\n      tag_32\n      jump\t// in\n    tag_55:\n      tag_56\n      jump\t// in\n        /* \"gcoin-staking.sol\":4866:4984  function seeRewardScore ( address _staker ) public view returns (uint256){... */\n    tag_13:\n      tag_30\n      tag_58\n      calldatasize\n      0x04\n      tag_32\n      jump\t// in\n    tag_58:\n      sub(shl(0xa0, 0x01), 0x01)\n        /* \"gcoin-staking.sol\":4951:4967  stakers[_staker] */\n      and\n        /* \"gcoin-staking.sol\":4931:4938  uint256 */\n      0x00\n        /* \"gcoin-staking.sol\":4951:4967  stakers[_staker] */\n      swap1\n      dup2\n      mstore\n        /* \"gcoin-staking.sol\":4951:4958  stakers */\n      0x03\n        /* \"gcoin-staking.sol\":4951:4967  stakers[_staker] */\n      0x20\n      mstore\n      0x40\n      swap1\n      keccak256\n        /* \"gcoin-staking.sol\":4951:4979  stakers[_staker].rewardScore */\n      0x02\n      add\n      sload\n      swap1\n        /* \"gcoin-staking.sol\":4866:4984  function seeRewardScore ( address _staker ) public view returns (uint256){... */\n      jump\n        /* \"gcoin-staking.sol\":1061:2068  function stake(uint256 _numcoins) external nonReentrant{... */\n    tag_14:\n      tag_21\n      tag_62\n      calldatasize\n      0x04\n      tag_23\n      jump\t// in\n    tag_62:\n      tag_63\n      jump\t// in\n        /* \"gcoin-staking.sol\":5118:5327  function newRewardsTotal (uint256 _newRewards) public onlyOwner {... */\n    tag_15:\n      tag_21\n      tag_65\n      calldatasize\n      0x04\n      tag_23\n      jump\t// in\n    tag_65:\n      tag_66\n      jump\t// in\n        /* \"@openzeppelin/contracts/access/Ownable.sol\":2081:2279   */\n    tag_16:\n      tag_21\n      tag_68\n      calldatasize\n      0x04\n      tag_32\n      jump\t// in\n    tag_68:\n      tag_69\n      jump\t// in\n        /* \"gcoin-staking.sol\":4558:4682  function availableRewards( address _staker ) public view returns (uint256){... */\n    tag_17:\n      tag_30\n      tag_71\n      calldatasize\n      0x04\n      tag_32\n      jump\t// in\n    tag_71:\n      sub(shl(0xa0, 0x01), 0x01)\n        /* \"gcoin-staking.sol\":4644:4660  stakers[_staker] */\n      and\n        /* \"gcoin-staking.sol\":4624:4631  uint256 */\n      0x00\n        /* \"gcoin-staking.sol\":4644:4660  stakers[_staker] */\n      swap1\n      dup2\n      mstore\n        /* \"gcoin-staking.sol\":4644:4651  stakers */\n      0x03\n        /* \"gcoin-staking.sol\":4644:4660  stakers[_staker] */\n      0x20\n      dup2\n      swap1\n      mstore\n      0x40\n      swap1\n      swap2\n      keccak256\n        /* \"gcoin-staking.sol\":4644:4677  stakers[_staker].unclaimedRewards */\n      add\n      sload\n      swap1\n        /* \"gcoin-staking.sol\":4558:4682  function availableRewards( address _staker ) public view returns (uint256){... */\n      jump\n        /* \"gcoin-staking.sol\":2073:2703  function withdraw (uint256 _numcoins) external nonReentrant{... */\n    tag_24:\n        /* \"@openzeppelin/contracts/security/ReentrancyGuard.sol\":1744:1745   */\n      0x02\n        /* \"@openzeppelin/contracts/security/ReentrancyGuard.sol\":2325:2332   */\n      sload(0x00)\n        /* \"@openzeppelin/contracts/security/ReentrancyGuard.sol\":2325:2344   */\n      sub\n        /* \"@openzeppelin/contracts/security/ReentrancyGuard.sol\":2317:2380   */\n      tag_75\n      jumpi\n      mload(0x40)\n      shl(0xe5, 0x461bcd)\n      dup2\n      mstore\n        /* \"#utility.yul\":1769:1771   */\n      0x20\n        /* \"@openzeppelin/contracts/security/ReentrancyGuard.sol\":2317:2380   */\n      0x04\n      dup3\n      add\n        /* \"#utility.yul\":1751:1772   */\n      mstore\n        /* \"#utility.yul\":1808:1810   */\n      0x1f\n        /* \"#utility.yul\":1788:1806   */\n      0x24\n      dup3\n      add\n        /* \"#utility.yul\":1781:1811   */\n      mstore\n        /* \"#utility.yul\":1847:1880   */\n      0x5265656e7472616e637947756172643a207265656e7472616e742063616c6c00\n        /* \"#utility.yul\":1827:1845   */\n      0x44\n      dup3\n      add\n        /* \"#utility.yul\":1820:1881   */\n      mstore\n        /* \"#utility.yul\":1898:1916   */\n      0x64\n      add\n        /* \"@openzeppelin/contracts/security/ReentrancyGuard.sol\":2317:2380   */\n    tag_76:\n      mload(0x40)\n      dup1\n      swap2\n      sub\n      swap1\n      revert\n    tag_75:\n        /* \"@openzeppelin/contracts/security/ReentrancyGuard.sol\":1744:1745   */\n      0x02\n        /* \"@openzeppelin/contracts/security/ReentrancyGuard.sol\":2455:2462   */\n      0x00\n        /* \"@openzeppelin/contracts/security/ReentrancyGuard.sol\":2455:2473   */\n      swap1\n      dup2\n      sstore\n        /* \"gcoin-staking.sol\":2206:2216  msg.sender */\n      caller\n        /* \"gcoin-staking.sol\":2198:2217  stakers[msg.sender] */\n      dup2\n      mstore\n        /* \"gcoin-staking.sol\":2198:2205  stakers */\n      0x03\n        /* \"gcoin-staking.sol\":2198:2217  stakers[msg.sender] */\n      0x20\n      mstore\n      0x40\n      swap1\n      keccak256\n        /* \"gcoin-staking.sol\":2198:2235  stakers[msg.sender].totalAmountStaked */\n      sload\n        /* \"gcoin-staking.sol\":2198:2248  stakers[msg.sender].totalAmountStaked >= _numcoins */\n      dup2\n      gt\n      iszero\n        /* \"gcoin-staking.sol\":2190:2317  require(stakers[msg.sender].totalAmountStaked >= _numcoins, \"Error: You have not staked enough coins to withdraw this amount!\") */\n      tag_79\n      jumpi\n      0x40\n      dup1\n      mload\n      shl(0xe5, 0x461bcd)\n      dup2\n      mstore\n        /* \"#utility.yul\":2129:2131   */\n      0x20\n        /* \"gcoin-staking.sol\":2190:2317  require(stakers[msg.sender].totalAmountStaked >= _numcoins, \"Error: You have not staked enough coins to withdraw this amount!\") */\n      0x04\n      dup3\n      add\n        /* \"#utility.yul\":2111:2132   */\n      mstore\n        /* \"#utility.yul\":2148:2166   */\n      0x24\n      dup2\n      add\n        /* \"#utility.yul\":2141:2171   */\n      swap2\n      swap1\n      swap2\n      mstore\n        /* \"#utility.yul\":2207:2241   */\n      0x4572726f723a20596f752068617665206e6f74207374616b656420656e6f7567\n        /* \"#utility.yul\":2187:2205   */\n      0x44\n      dup3\n      add\n        /* \"#utility.yul\":2180:2242   */\n      mstore\n        /* \"#utility.yul\":2278:2312   */\n      0x6820636f696e7320746f207769746864726177207468697320616d6f756e7421\n        /* \"#utility.yul\":2258:2276   */\n      0x64\n      dup3\n      add\n        /* \"#utility.yul\":2251:2313   */\n      mstore\n        /* \"#utility.yul\":2330:2349   */\n      0x84\n      add\n        /* \"gcoin-staking.sol\":2190:2317  require(stakers[msg.sender].totalAmountStaked >= _numcoins, \"Error: You have not staked enough coins to withdraw this amount!\") */\n      tag_76\n        /* \"#utility.yul\":1927:2355   */\n      jump\n        /* \"gcoin-staking.sol\":2190:2317  require(stakers[msg.sender].totalAmountStaked >= _numcoins, \"Error: You have not staked enough coins to withdraw this amount!\") */\n    tag_79:\n        /* \"gcoin-staking.sol\":2324:2339  uint256 rewards */\n      0x00\n        /* \"gcoin-staking.sol\":2342:2370  calculateRewards(msg.sender) */\n      tag_82\n        /* \"gcoin-staking.sol\":2359:2369  msg.sender */\n      caller\n        /* \"gcoin-staking.sol\":2342:2358  calculateRewards */\n      tag_83\n        /* \"gcoin-staking.sol\":2342:2370  calculateRewards(msg.sender) */\n      jump\t// in\n    tag_82:\n        /* \"gcoin-staking.sol\":2418:2428  msg.sender */\n      caller\n        /* \"gcoin-staking.sol\":2410:2429  stakers[msg.sender] */\n      0x00\n      swap1\n      dup2\n      mstore\n        /* \"gcoin-staking.sol\":2410:2417  stakers */\n      0x03\n        /* \"gcoin-staking.sol\":2410:2429  stakers[msg.sender] */\n      0x20\n      mstore\n      0x40\n      dup2\n      keccak256\n        /* \"gcoin-staking.sol\":2410:2460  stakers[msg.sender].totalAmountStaked -= _numcoins */\n      dup1\n      sload\n        /* \"gcoin-staking.sol\":2324:2370  uint256 rewards = calculateRewards(msg.sender) */\n      swap3\n      swap4\n      pop\n        /* \"gcoin-staking.sol\":2451:2460  _numcoins */\n      dup5\n      swap3\n        /* \"gcoin-staking.sol\":2410:2429  stakers[msg.sender] */\n      swap1\n      swap2\n      swap1\n        /* \"gcoin-staking.sol\":2410:2460  stakers[msg.sender].totalAmountStaked -= _numcoins */\n      tag_84\n      swap1\n        /* \"gcoin-staking.sol\":2451:2460  _numcoins */\n      dup5\n      swap1\n        /* \"gcoin-staking.sol\":2410:2460  stakers[msg.sender].totalAmountStaked -= _numcoins */\n      tag_85\n      jump\t// in\n    tag_84:\n      swap1\n      swap2\n      sstore\n      pop\n      pop\n        /* \"gcoin-staking.sol\":2499:2509  msg.sender */\n      caller\n        /* \"gcoin-staking.sol\":2491:2510  stakers[msg.sender] */\n      0x00\n      swap1\n      dup2\n      mstore\n        /* \"gcoin-staking.sol\":2491:2498  stakers */\n      0x03\n        /* \"gcoin-staking.sol\":2491:2510  stakers[msg.sender] */\n      0x20\n      mstore\n      0x40\n      dup2\n      keccak256\n        /* \"gcoin-staking.sol\":2491:2522  stakers[msg.sender].rewardScore */\n      0x02\n      add\n        /* \"gcoin-staking.sol\":2491:2533  stakers[msg.sender].rewardScore += rewards */\n      dup1\n      sload\n        /* \"gcoin-staking.sol\":2526:2533  rewards */\n      dup4\n      swap3\n        /* \"gcoin-staking.sol\":2491:2510  stakers[msg.sender] */\n      swap1\n        /* \"gcoin-staking.sol\":2491:2533  stakers[msg.sender].rewardScore += rewards */\n      tag_86\n      swap1\n        /* \"gcoin-staking.sol\":2526:2533  rewards */\n      dup5\n      swap1\n        /* \"gcoin-staking.sol\":2491:2533  stakers[msg.sender].rewardScore += rewards */\n      tag_87\n      jump\t// in\n    tag_86:\n      swap1\n      swap2\n      sstore\n      pop\n        /* \"gcoin-staking.sol\":2569:2610  gcoin.safeTransfer(msg.sender, _numcoins) */\n      tag_88\n      swap1\n      pop\n      sub(shl(0xa0, 0x01), 0x01)\n        /* \"gcoin-staking.sol\":2569:2574  gcoin */\n      immutable(\"0x277ab82e5a4641341820a4a2933a62c1de997e42e92548657ae21b3728d580fe\")\n        /* \"gcoin-staking.sol\":2569:2587  gcoin.safeTransfer */\n      and\n        /* \"gcoin-staking.sol\":2588:2598  msg.sender */\n      caller\n        /* \"gcoin-staking.sol\":2600:2609  _numcoins */\n      dup5\n        /* \"gcoin-staking.sol\":2569:2587  gcoin.safeTransfer */\n      tag_89\n        /* \"gcoin-staking.sol\":2569:2610  gcoin.safeTransfer(msg.sender, _numcoins) */\n      jump\t// in\n    tag_88:\n      pop\n      pop\n        /* \"gcoin-staking.sol\":2653:2663  msg.sender */\n      caller\n        /* \"gcoin-staking.sol\":2645:2664  stakers[msg.sender] */\n      0x00\n      swap1\n      dup2\n      mstore\n        /* \"gcoin-staking.sol\":2645:2652  stakers */\n      0x03\n        /* \"gcoin-staking.sol\":2645:2664  stakers[msg.sender] */\n      0x20\n      mstore\n      0x40\n      dup2\n      keccak256\n        /* \"gcoin-staking.sol\":2683:2698  block.timestamp */\n      timestamp\n        /* \"gcoin-staking.sol\":2645:2680  stakers[msg.sender].timeLastUpdated */\n      0x01\n      swap2\n      dup3\n      add\n        /* \"gcoin-staking.sol\":2645:2698  stakers[msg.sender].timeLastUpdated = block.timestamp */\n      sstore\n        /* \"@openzeppelin/contracts/security/ReentrancyGuard.sol\":2628:2650   */\n      swap1\n      sstore\n        /* \"gcoin-staking.sol\":2073:2703  function withdraw (uint256 _numcoins) external nonReentrant{... */\n      jump\t// out\n        /* \"gcoin-staking.sol\":2708:3284  function claimRewards() external{\t//to send users rewards they have gotten from last period... */\n    tag_26:\n        /* \"gcoin-staking.sol\":2870:2880  msg.sender */\n      caller\n        /* \"gcoin-staking.sol\":2901:2902  0 */\n      0x00\n        /* \"gcoin-staking.sol\":2862:2881  stakers[msg.sender] */\n      swap1\n      dup2\n      mstore\n        /* \"gcoin-staking.sol\":2862:2869  stakers */\n      0x03\n        /* \"gcoin-staking.sol\":2862:2881  stakers[msg.sender] */\n      0x20\n      dup2\n      swap1\n      mstore\n      0x40\n      swap1\n      swap2\n      keccak256\n        /* \"gcoin-staking.sol\":2862:2898  stakers[msg.sender].unclaimedRewards */\n      add\n      sload\n        /* \"gcoin-staking.sol\":2854:2996  require(stakers[msg.sender].unclaimedRewards > 0, \"Error: You currently have no rewards to claim. Please check back at the end of the month.\") */\n      tag_91\n      jumpi\n      mload(0x40)\n      shl(0xe5, 0x461bcd)\n      dup2\n      mstore\n        /* \"#utility.yul\":2957:2959   */\n      0x20\n        /* \"gcoin-staking.sol\":2854:2996  require(stakers[msg.sender].unclaimedRewards > 0, \"Error: You currently have no rewards to claim. Please check back at the end of the month.\") */\n      0x04\n      dup3\n      add\n        /* \"#utility.yul\":2939:2960   */\n      mstore\n        /* \"#utility.yul\":2996:2998   */\n      0x59\n        /* \"#utility.yul\":2976:2994   */\n      0x24\n      dup3\n      add\n        /* \"#utility.yul\":2969:2999   */\n      mstore\n        /* \"#utility.yul\":3035:3069   */\n      0x4572726f723a20596f752063757272656e746c792068617665206e6f20726577\n        /* \"#utility.yul\":3015:3033   */\n      0x44\n      dup3\n      add\n        /* \"#utility.yul\":3008:3070   */\n      mstore\n        /* \"#utility.yul\":3106:3140   */\n      0x6172647320746f20636c61696d2e20506c6561736520636865636b206261636b\n        /* \"#utility.yul\":3086:3104   */\n      0x64\n      dup3\n      add\n        /* \"#utility.yul\":3079:3141   */\n      mstore\n        /* \"#utility.yul\":3178:3205   */\n      0x2061742074686520656e64206f6620746865206d6f6e74682e00000000000000\n        /* \"#utility.yul\":3157:3176   */\n      0x84\n      dup3\n      add\n        /* \"#utility.yul\":3150:3206   */\n      mstore\n        /* \"#utility.yul\":3223:3242   */\n      0xa4\n      add\n        /* \"gcoin-staking.sol\":2854:2996  require(stakers[msg.sender].unclaimedRewards > 0, \"Error: You currently have no rewards to claim. Please check back at the end of the month.\") */\n      tag_76\n        /* \"#utility.yul\":2755:3248   */\n      jump\n        /* \"gcoin-staking.sol\":2854:2996  require(stakers[msg.sender].unclaimedRewards > 0, \"Error: You currently have no rewards to claim. Please check back at the end of the month.\") */\n    tag_91:\n        /* \"gcoin-staking.sol\":3029:3039  msg.sender */\n      caller\n        /* \"gcoin-staking.sol\":3003:3018  uint256 rewards */\n      0x00\n        /* \"gcoin-staking.sol\":3021:3040  stakers[msg.sender] */\n      dup2\n      dup2\n      mstore\n        /* \"gcoin-staking.sol\":3021:3028  stakers */\n      0x03\n        /* \"gcoin-staking.sol\":3021:3040  stakers[msg.sender] */\n      0x20\n      dup2\n      swap1\n      mstore\n      0x40\n      dup3\n      keccak256\n        /* \"gcoin-staking.sol\":3021:3057  stakers[msg.sender].unclaimedRewards */\n      add\n      dup1\n      sload\n        /* \"gcoin-staking.sol\":3102:3142  stakers[msg.sender].unclaimedRewards = 0 */\n      swap2\n      swap1\n      sstore\n        /* \"gcoin-staking.sol\":3021:3057  stakers[msg.sender].unclaimedRewards */\n      swap1\n        /* \"gcoin-staking.sol\":3185:3224  gcoin.safeTransfer(msg.sender, rewards) */\n      tag_94\n      swap1\n        /* \"gcoin-staking.sol\":3185:3190  gcoin */\n      immutable(\"0x277ab82e5a4641341820a4a2933a62c1de997e42e92548657ae21b3728d580fe\")\n      sub(shl(0xa0, 0x01), 0x01)\n        /* \"gcoin-staking.sol\":3185:3203  gcoin.safeTransfer */\n      and\n      swap1\n        /* \"gcoin-staking.sol\":3021:3057  stakers[msg.sender].unclaimedRewards */\n      dup4\n        /* \"gcoin-staking.sol\":3185:3203  gcoin.safeTransfer */\n      tag_89\n        /* \"gcoin-staking.sol\":3185:3224  gcoin.safeTransfer(msg.sender, rewards) */\n      jump\t// in\n    tag_94:\n        /* \"gcoin-staking.sol\":3272:3279  rewards */\n      dup1\n        /* \"gcoin-staking.sol\":3256:3268  rewardsTotal */\n      0x02\n      0x00\n        /* \"gcoin-staking.sol\":3256:3279  rewardsTotal -= rewards */\n      dup3\n      dup3\n      sload\n      tag_95\n      swap2\n      swap1\n      tag_85\n      jump\t// in\n    tag_95:\n      swap1\n      swap2\n      sstore\n      pop\n      pop\n      pop\n        /* \"gcoin-staking.sol\":2708:3284  function claimRewards() external{\t//to send users rewards they have gotten from last period... */\n      jump\t// out\n        /* \"gcoin-staking.sol\":3289:4299  function scoreToRewards(uint _coinsToDistrubute) public {\t//used for the end of the period, to change users reward scores to 0 and add to their unclaimed rewards... */\n    tag_29:\n        /* \"gcoin-staking.sol\":3500:3509  uint256 i */\n      0x00\n        /* \"gcoin-staking.sol\":3496:3597  for(uint256 i = 0; i < staker_addresses.length; i++){... */\n    tag_97:\n        /* \"gcoin-staking.sol\":3519:3535  staker_addresses */\n      0x04\n        /* \"gcoin-staking.sol\":3519:3542  staker_addresses.length */\n      sload\n        /* \"gcoin-staking.sol\":3515:3542  i < staker_addresses.length */\n      dup2\n      lt\n        /* \"gcoin-staking.sol\":3496:3597  for(uint256 i = 0; i < staker_addresses.length; i++){... */\n      iszero\n      tag_98\n      jumpi\n        /* \"gcoin-staking.sol\":3554:3591  calculateRewards(staker_addresses[i]) */\n      tag_100\n        /* \"gcoin-staking.sol\":3571:3587  staker_addresses */\n      0x04\n        /* \"gcoin-staking.sol\":3588:3589  i */\n      dup3\n        /* \"gcoin-staking.sol\":3571:3590  staker_addresses[i] */\n      dup2\n      sload\n      dup2\n      lt\n      tag_102\n      jumpi\n      tag_102\n      tag_103\n      jump\t// in\n    tag_102:\n      0x00\n      swap2\n      dup3\n      mstore\n      0x20\n      swap1\n      swap2\n      keccak256\n      add\n      sload\n      sub(shl(0xa0, 0x01), 0x01)\n      and\n        /* \"gcoin-staking.sol\":3554:3570  calculateRewards */\n      tag_83\n        /* \"gcoin-staking.sol\":3554:3591  calculateRewards(staker_addresses[i]) */\n      jump\t// in\n    tag_100:\n      pop\n        /* \"gcoin-staking.sol\":3544:3547  i++ */\n      dup1\n      tag_105\n      dup2\n      tag_106\n      jump\t// in\n    tag_105:\n      swap2\n      pop\n      pop\n        /* \"gcoin-staking.sol\":3496:3597  for(uint256 i = 0; i < staker_addresses.length; i++){... */\n      jump(tag_97)\n    tag_98:\n      pop\n        /* \"gcoin-staking.sol\":3603:3627  uint256 totalRewardScore */\n      0x00\n        /* \"gcoin-staking.sol\":3681:3690  uint256 i */\n      dup1\n        /* \"gcoin-staking.sol\":3677:3801  for(uint256 i = 0; i < staker_addresses.length; i++){... */\n    tag_107:\n        /* \"gcoin-staking.sol\":3700:3716  staker_addresses */\n      0x04\n        /* \"gcoin-staking.sol\":3700:3723  staker_addresses.length */\n      sload\n        /* \"gcoin-staking.sol\":3696:3723  i < staker_addresses.length */\n      dup2\n      lt\n        /* \"gcoin-staking.sol\":3677:3801  for(uint256 i = 0; i < staker_addresses.length; i++){... */\n      iszero\n      tag_108\n      jumpi\n        /* \"gcoin-staking.sol\":3755:3762  stakers */\n      0x03\n        /* \"gcoin-staking.sol\":3755:3783  stakers[staker_addresses[i]] */\n      0x00\n        /* \"gcoin-staking.sol\":3763:3779  staker_addresses */\n      0x04\n        /* \"gcoin-staking.sol\":3780:3781  i */\n      dup4\n        /* \"gcoin-staking.sol\":3763:3782  staker_addresses[i] */\n      dup2\n      sload\n      dup2\n      lt\n      tag_111\n      jumpi\n      tag_111\n      tag_103\n      jump\t// in\n    tag_111:\n      0x00\n      swap2\n      dup3\n      mstore\n      0x20\n      dup1\n      dup4\n      keccak256\n      swap1\n      swap2\n      add\n      sload\n      sub(shl(0xa0, 0x01), 0x01)\n      and\n        /* \"gcoin-staking.sol\":3755:3783  stakers[staker_addresses[i]] */\n      dup4\n      mstore\n      dup3\n      add\n      swap3\n      swap1\n      swap3\n      mstore\n      0x40\n      add\n      swap1\n      keccak256\n        /* \"gcoin-staking.sol\":3755:3795  stakers[staker_addresses[i]].rewardScore */\n      0x02\n      add\n      sload\n        /* \"gcoin-staking.sol\":3735:3795  totalRewardScore += stakers[staker_addresses[i]].rewardScore */\n      tag_113\n      swap1\n      dup4\n      tag_87\n      jump\t// in\n    tag_113:\n      swap2\n      pop\n        /* \"gcoin-staking.sol\":3725:3728  i++ */\n      dup1\n      tag_114\n      dup2\n      tag_106\n      jump\t// in\n    tag_114:\n      swap2\n      pop\n      pop\n        /* \"gcoin-staking.sol\":3677:3801  for(uint256 i = 0; i < staker_addresses.length; i++){... */\n      jump(tag_107)\n    tag_108:\n      pop\n        /* \"gcoin-staking.sol\":3966:3975  uint256 i */\n      0x00\n        /* \"gcoin-staking.sol\":3962:4254  for(uint256 i = 0; i < staker_addresses.length; i++){... */\n    tag_115:\n        /* \"gcoin-staking.sol\":3985:4001  staker_addresses */\n      0x04\n        /* \"gcoin-staking.sol\":3985:4008  staker_addresses.length */\n      sload\n        /* \"gcoin-staking.sol\":3981:4008  i < staker_addresses.length */\n      dup2\n      lt\n        /* \"gcoin-staking.sol\":3962:4254  for(uint256 i = 0; i < staker_addresses.length; i++){... */\n      iszero\n      tag_116\n      jumpi\n        /* \"gcoin-staking.sol\":4020:4029  address t */\n      0x00\n        /* \"gcoin-staking.sol\":4032:4048  staker_addresses */\n      0x04\n        /* \"gcoin-staking.sol\":4049:4050  i */\n      dup3\n        /* \"gcoin-staking.sol\":4032:4051  staker_addresses[i] */\n      dup2\n      sload\n      dup2\n      lt\n      tag_119\n      jumpi\n      tag_119\n      tag_103\n      jump\t// in\n    tag_119:\n      0x00\n      swap2\n      dup3\n      mstore\n      0x20\n      dup1\n      dup4\n      keccak256\n      swap1\n      swap2\n      add\n      sload\n      sub(shl(0xa0, 0x01), 0x01)\n      and\n        /* \"gcoin-staking.sol\":4088:4098  stakers[t] */\n      dup1\n      dup4\n      mstore\n        /* \"gcoin-staking.sol\":4088:4095  stakers */\n      0x03\n        /* \"gcoin-staking.sol\":4088:4098  stakers[t] */\n      swap1\n      swap2\n      mstore\n      0x40\n      swap1\n      swap2\n      keccak256\n        /* \"gcoin-staking.sol\":4088:4110  stakers[t].rewardScore */\n      0x02\n      add\n      sload\n        /* \"gcoin-staking.sol\":4032:4051  staker_addresses[i] */\n      swap1\n      swap2\n      pop\n        /* \"gcoin-staking.sol\":4132:4148  totalRewardScore */\n      dup4\n      swap1\n        /* \"gcoin-staking.sol\":4088:4131  stakers[t].rewardScore * _coinsToDistrubute */\n      tag_121\n      swap1\n        /* \"gcoin-staking.sol\":4113:4131  _coinsToDistrubute */\n      dup7\n      swap1\n        /* \"gcoin-staking.sol\":4088:4131  stakers[t].rewardScore * _coinsToDistrubute */\n      tag_122\n      jump\t// in\n    tag_121:\n        /* \"gcoin-staking.sol\":4088:4148  stakers[t].rewardScore * _coinsToDistrubute/totalRewardScore */\n      tag_123\n      swap2\n      swap1\n      tag_124\n      jump\t// in\n    tag_123:\n      sub(shl(0xa0, 0x01), 0x01)\n        /* \"gcoin-staking.sol\":4057:4067  stakers[t] */\n      dup3\n      and\n      0x00\n      swap1\n      dup2\n      mstore\n        /* \"gcoin-staking.sol\":4057:4064  stakers */\n      0x03\n        /* \"gcoin-staking.sol\":4057:4067  stakers[t] */\n      0x20\n      dup2\n      swap1\n      mstore\n      0x40\n      dup3\n      keccak256\n        /* \"gcoin-staking.sol\":4057:4084  stakers[t].unclaimedRewards */\n      add\n        /* \"gcoin-staking.sol\":4057:4148  stakers[t].unclaimedRewards += stakers[t].rewardScore * _coinsToDistrubute/totalRewardScore */\n      dup1\n      sload\n        /* \"gcoin-staking.sol\":4057:4084  stakers[t].unclaimedRewards */\n      swap1\n      swap2\n        /* \"gcoin-staking.sol\":4057:4067  stakers[t] */\n      swap1\n        /* \"gcoin-staking.sol\":4057:4148  stakers[t].unclaimedRewards += stakers[t].rewardScore * _coinsToDistrubute/totalRewardScore */\n      tag_125\n      swap1\n      dup5\n      swap1\n      tag_87\n      jump\t// in\n    tag_125:\n      swap1\n      swap2\n      sstore\n      pop\n      pop\n      sub(shl(0xa0, 0x01), 0x01)\n        /* \"gcoin-staking.sol\":4172:4182  stakers[t] */\n      and\n        /* \"gcoin-staking.sol\":4197:4198  0 */\n      0x00\n        /* \"gcoin-staking.sol\":4172:4182  stakers[t] */\n      swap1\n      dup2\n      mstore\n        /* \"gcoin-staking.sol\":4172:4179  stakers */\n      0x03\n        /* \"gcoin-staking.sol\":4172:4182  stakers[t] */\n      0x20\n      mstore\n      0x40\n      dup2\n      keccak256\n        /* \"gcoin-staking.sol\":4172:4194  stakers[t].rewardScore */\n      0x02\n      dup2\n      add\n        /* \"gcoin-staking.sol\":4172:4198  stakers[t].rewardScore = 0 */\n      swap2\n      swap1\n      swap2\n      sstore\n        /* \"gcoin-staking.sol\":4233:4248  block.timestamp */\n      timestamp\n        /* \"gcoin-staking.sol\":4204:4230  stakers[t].timeLastUpdated */\n      0x01\n      swap1\n      swap2\n      add\n        /* \"gcoin-staking.sol\":4204:4248  stakers[t].timeLastUpdated = block.timestamp */\n      sstore\n        /* \"gcoin-staking.sol\":4010:4013  i++ */\n      dup1\n      tag_126\n      dup2\n      tag_106\n      jump\t// in\n    tag_126:\n      swap2\n      pop\n      pop\n        /* \"gcoin-staking.sol\":3962:4254  for(uint256 i = 0; i < staker_addresses.length; i++){... */\n      jump(tag_115)\n    tag_116:\n      pop\n        /* \"gcoin-staking.sol\":4276:4294  _coinsToDistrubute */\n      dup2\n        /* \"gcoin-staking.sol\":4260:4272  rewardsTotal */\n      0x02\n      0x00\n        /* \"gcoin-staking.sol\":4260:4294  rewardsTotal += _coinsToDistrubute */\n      dup3\n      dup3\n      sload\n      tag_127\n      swap2\n      swap1\n      tag_87\n      jump\t// in\n    tag_127:\n      swap1\n      swap2\n      sstore\n      pop\n      pop\n      pop\n      pop\n        /* \"gcoin-staking.sol\":3289:4299  function scoreToRewards(uint _coinsToDistrubute) public {\t//used for the end of the period, to change users reward scores to 0 and add to their unclaimed rewards... */\n      jump\t// out\n        /* \"@openzeppelin/contracts/access/Ownable.sol\":1831:1932   */\n    tag_40:\n        /* \"@openzeppelin/contracts/access/Ownable.sol\":1094:1107   */\n      tag_131\n        /* \"@openzeppelin/contracts/access/Ownable.sol\":1094:1105   */\n      tag_132\n        /* \"@openzeppelin/contracts/access/Ownable.sol\":1094:1107   */\n      jump\t// in\n    tag_131:\n        /* \"@openzeppelin/contracts/access/Ownable.sol\":1895:1925   */\n      tag_134\n        /* \"@openzeppelin/contracts/access/Ownable.sol\":1922:1923   */\n      0x00\n        /* \"@openzeppelin/contracts/access/Ownable.sol\":1895:1913   */\n      tag_135\n        /* \"@openzeppelin/contracts/access/Ownable.sol\":1895:1925   */\n      jump\t// in\n    tag_134:\n        /* \"@openzeppelin/contracts/access/Ownable.sol\":1831:1932   */\n      jump\t// out\n        /* \"gcoin-staking.sol\":4687:4861  function updateRewardScore( address _staker ) public{... */\n    tag_56:\n        /* \"gcoin-staking.sol\":4776:4801  calculateRewards(_staker) */\n      tag_138\n        /* \"gcoin-staking.sol\":4793:4800  _staker */\n      dup2\n        /* \"gcoin-staking.sol\":4776:4792  calculateRewards */\n      tag_83\n        /* \"gcoin-staking.sol\":4776:4801  calculateRewards(_staker) */\n      jump\t// in\n    tag_138:\n      sub(shl(0xa0, 0x01), 0x01)\n        /* \"gcoin-staking.sol\":4744:4760  stakers[_staker] */\n      dup3\n      and\n      0x00\n      swap1\n      dup2\n      mstore\n        /* \"gcoin-staking.sol\":4744:4751  stakers */\n      0x03\n        /* \"gcoin-staking.sol\":4744:4760  stakers[_staker] */\n      0x20\n      mstore\n      0x40\n      dup2\n      keccak256\n        /* \"gcoin-staking.sol\":4744:4772  stakers[_staker].rewardScore */\n      0x02\n      add\n        /* \"gcoin-staking.sol\":4744:4801  stakers[_staker].rewardScore += calculateRewards(_staker) */\n      dup1\n      sload\n        /* \"gcoin-staking.sol\":4744:4772  stakers[_staker].rewardScore */\n      swap1\n      swap2\n        /* \"gcoin-staking.sol\":4744:4760  stakers[_staker] */\n      swap1\n        /* \"gcoin-staking.sol\":4744:4801  stakers[_staker].rewardScore += calculateRewards(_staker) */\n      tag_139\n      swap1\n      dup5\n      swap1\n      tag_87\n      jump\t// in\n    tag_139:\n      swap1\n      swap2\n      sstore\n      pop\n      pop\n      sub(shl(0xa0, 0x01), 0x01)\n        /* \"gcoin-staking.sol\":4806:4822  stakers[_staker] */\n      and\n      0x00\n      swap1\n      dup2\n      mstore\n        /* \"gcoin-staking.sol\":4806:4813  stakers */\n      0x03\n        /* \"gcoin-staking.sol\":4806:4822  stakers[_staker] */\n      0x20\n      mstore\n      0x40\n      swap1\n      keccak256\n        /* \"gcoin-staking.sol\":4841:4856  block.timestamp */\n      timestamp\n        /* \"gcoin-staking.sol\":4806:4838  stakers[_staker].timeLastUpdated */\n      0x01\n      swap1\n      swap2\n      add\n        /* \"gcoin-staking.sol\":4806:4856  stakers[_staker].timeLastUpdated = block.timestamp */\n      sstore\n        /* \"gcoin-staking.sol\":4687:4861  function updateRewardScore( address _staker ) public{... */\n      jump\t// out\n        /* \"gcoin-staking.sol\":1061:2068  function stake(uint256 _numcoins) external nonReentrant{... */\n    tag_63:\n        /* \"@openzeppelin/contracts/security/ReentrancyGuard.sol\":1744:1745   */\n      0x02\n        /* \"@openzeppelin/contracts/security/ReentrancyGuard.sol\":2325:2332   */\n      sload(0x00)\n        /* \"@openzeppelin/contracts/security/ReentrancyGuard.sol\":2325:2344   */\n      sub\n        /* \"@openzeppelin/contracts/security/ReentrancyGuard.sol\":2317:2380   */\n      tag_142\n      jumpi\n      mload(0x40)\n      shl(0xe5, 0x461bcd)\n      dup2\n      mstore\n        /* \"#utility.yul\":1769:1771   */\n      0x20\n        /* \"@openzeppelin/contracts/security/ReentrancyGuard.sol\":2317:2380   */\n      0x04\n      dup3\n      add\n        /* \"#utility.yul\":1751:1772   */\n      mstore\n        /* \"#utility.yul\":1808:1810   */\n      0x1f\n        /* \"#utility.yul\":1788:1806   */\n      0x24\n      dup3\n      add\n        /* \"#utility.yul\":1781:1811   */\n      mstore\n        /* \"#utility.yul\":1847:1880   */\n      0x5265656e7472616e637947756172643a207265656e7472616e742063616c6c00\n        /* \"#utility.yul\":1827:1845   */\n      0x44\n      dup3\n      add\n        /* \"#utility.yul\":1820:1881   */\n      mstore\n        /* \"#utility.yul\":1898:1916   */\n      0x64\n      add\n        /* \"@openzeppelin/contracts/security/ReentrancyGuard.sol\":2317:2380   */\n      tag_76\n        /* \"#utility.yul\":1567:1922   */\n      jump\n        /* \"@openzeppelin/contracts/security/ReentrancyGuard.sol\":2317:2380   */\n    tag_142:\n        /* \"@openzeppelin/contracts/security/ReentrancyGuard.sol\":1744:1745   */\n      0x02\n        /* \"@openzeppelin/contracts/security/ReentrancyGuard.sol\":2455:2462   */\n      0x00\n        /* \"@openzeppelin/contracts/security/ReentrancyGuard.sol\":2455:2473   */\n      swap1\n      dup2\n      sstore\n        /* \"gcoin-staking.sol\":1225:1235  msg.sender */\n      caller\n        /* \"gcoin-staking.sol\":1217:1236  stakers[msg.sender] */\n      dup2\n      mstore\n        /* \"gcoin-staking.sol\":1217:1224  stakers */\n      0x03\n        /* \"gcoin-staking.sol\":1217:1236  stakers[msg.sender] */\n      0x20\n      mstore\n      0x40\n      swap1\n      keccak256\n        /* \"gcoin-staking.sol\":1217:1254  stakers[msg.sender].totalAmountStaked */\n      sload\n        /* \"gcoin-staking.sol\":1217:1258  stakers[msg.sender].totalAmountStaked > 0 */\n      iszero\n        /* \"gcoin-staking.sol\":1214:1477  if(stakers[msg.sender].totalAmountStaked > 0){... */\n      tag_145\n      jumpi\n        /* \"gcoin-staking.sol\":1265:1280  uint256 rewards */\n      0x00\n        /* \"gcoin-staking.sol\":1283:1311  calculateRewards(msg.sender) */\n      tag_146\n        /* \"gcoin-staking.sol\":1300:1310  msg.sender */\n      caller\n        /* \"gcoin-staking.sol\":1283:1299  calculateRewards */\n      tag_83\n        /* \"gcoin-staking.sol\":1283:1311  calculateRewards(msg.sender) */\n      jump\t// in\n    tag_146:\n        /* \"gcoin-staking.sol\":1325:1335  msg.sender */\n      caller\n        /* \"gcoin-staking.sol\":1317:1336  stakers[msg.sender] */\n      0x00\n      swap1\n      dup2\n      mstore\n        /* \"gcoin-staking.sol\":1317:1324  stakers */\n      0x03\n        /* \"gcoin-staking.sol\":1317:1336  stakers[msg.sender] */\n      0x20\n      mstore\n      0x40\n      dup2\n      keccak256\n        /* \"gcoin-staking.sol\":1317:1348  stakers[msg.sender].rewardScore */\n      0x02\n      add\n        /* \"gcoin-staking.sol\":1317:1359  stakers[msg.sender].rewardScore += rewards */\n      dup1\n      sload\n        /* \"gcoin-staking.sol\":1265:1311  uint256 rewards = calculateRewards(msg.sender) */\n      swap3\n      swap4\n      pop\n      dup4\n      swap3\n        /* \"gcoin-staking.sol\":1317:1348  stakers[msg.sender].rewardScore */\n      swap1\n      swap2\n        /* \"gcoin-staking.sol\":1317:1336  stakers[msg.sender] */\n      swap1\n        /* \"gcoin-staking.sol\":1317:1359  stakers[msg.sender].rewardScore += rewards */\n      tag_147\n      swap1\n        /* \"gcoin-staking.sol\":1265:1311  uint256 rewards = calculateRewards(msg.sender) */\n      dup5\n      swap1\n        /* \"gcoin-staking.sol\":1317:1359  stakers[msg.sender].rewardScore += rewards */\n      tag_87\n      jump\t// in\n    tag_147:\n      swap1\n      swap2\n      sstore\n      pop\n        /* \"gcoin-staking.sol\":1214:1477  if(stakers[msg.sender].totalAmountStaked > 0){... */\n      tag_148\n      swap2\n      pop\n      pop\n      jump\n    tag_145:\n        /* \"gcoin-staking.sol\":1438:1454  staker_addresses */\n      0x04\n        /* \"gcoin-staking.sol\":1438:1471  staker_addresses.push(msg.sender) */\n      dup1\n      sload\n      0x01\n      dup2\n      add\n      dup3\n      sstore\n      0x00\n      swap2\n      swap1\n      swap2\n      mstore\n      0x8a35acfbc15ff81a39ae7d344fd709f28e8600b4aa8c65c6b64bfe7fe36bd19b\n      add\n      dup1\n      sload\n      not(0xffffffffffffffffffffffffffffffffffffffff)\n      and\n        /* \"gcoin-staking.sol\":1460:1470  msg.sender */\n      caller\n        /* \"gcoin-staking.sol\":1438:1471  staker_addresses.push(msg.sender) */\n      or\n      swap1\n      sstore\n        /* \"gcoin-staking.sol\":1214:1477  if(stakers[msg.sender].totalAmountStaked > 0){... */\n    tag_148:\n        /* \"gcoin-staking.sol\":1503:1504  0 */\n      0x00\n        /* \"gcoin-staking.sol\":1491:1500  _numcoins */\n      dup2\n        /* \"gcoin-staking.sol\":1491:1504  _numcoins > 0 */\n      gt\n        /* \"gcoin-staking.sol\":1483:1546  require(_numcoins > 0, \"You need to stake more than 0 coins.\" ) */\n      tag_150\n      jumpi\n      mload(0x40)\n      shl(0xe5, 0x461bcd)\n      dup2\n      mstore\n        /* \"#utility.yul\":4122:4124   */\n      0x20\n        /* \"gcoin-staking.sol\":1483:1546  require(_numcoins > 0, \"You need to stake more than 0 coins.\" ) */\n      0x04\n      dup3\n      add\n        /* \"#utility.yul\":4104:4125   */\n      mstore\n        /* \"#utility.yul\":4161:4163   */\n      0x24\n        /* \"#utility.yul\":4141:4159   */\n      dup1\n      dup3\n      add\n        /* \"#utility.yul\":4134:4164   */\n      mstore\n        /* \"#utility.yul\":4200:4234   */\n      0x596f75206e65656420746f207374616b65206d6f7265207468616e203020636f\n        /* \"#utility.yul\":4180:4198   */\n      0x44\n      dup3\n      add\n        /* \"#utility.yul\":4173:4235   */\n      mstore\n      shl(0xe1, 0x34b73997)\n        /* \"#utility.yul\":4251:4269   */\n      0x64\n      dup3\n      add\n        /* \"#utility.yul\":4244:4278   */\n      mstore\n        /* \"#utility.yul\":4295:4314   */\n      0x84\n      add\n        /* \"gcoin-staking.sol\":1483:1546  require(_numcoins > 0, \"You need to stake more than 0 coins.\" ) */\n      tag_76\n        /* \"#utility.yul\":3920:4320   */\n      jump\n        /* \"gcoin-staking.sol\":1483:1546  require(_numcoins > 0, \"You need to stake more than 0 coins.\" ) */\n    tag_150:\n        /* \"gcoin-staking.sol\":1618:1645  gcoin.balanceOf(msg.sender) */\n      mload(0x40)\n      shl(0xe0, 0x70a08231)\n      dup2\n      mstore\n        /* \"gcoin-staking.sol\":1634:1644  msg.sender */\n      caller\n        /* \"gcoin-staking.sol\":1618:1645  gcoin.balanceOf(msg.sender) */\n      0x04\n      dup3\n      add\n        /* \"#utility.yul\":855:929   */\n      mstore\n        /* \"gcoin-staking.sol\":1649:1658  _numcoins */\n      dup2\n      swap1\n        /* \"gcoin-staking.sol\":1618:1623  gcoin */\n      immutable(\"0x277ab82e5a4641341820a4a2933a62c1de997e42e92548657ae21b3728d580fe\")\n      sub(shl(0xa0, 0x01), 0x01)\n        /* \"gcoin-staking.sol\":1618:1633  gcoin.balanceOf */\n      and\n      swap1\n      0x70a08231\n      swap1\n        /* \"#utility.yul\":828:846   */\n      0x24\n      add\n        /* \"gcoin-staking.sol\":1618:1645  gcoin.balanceOf(msg.sender) */\n      0x20\n      mload(0x40)\n      dup1\n      dup4\n      sub\n      dup2\n      dup7\n      gas\n      staticcall\n      iszero\n      dup1\n      iszero\n      tag_155\n      jumpi\n      returndatasize\n      0x00\n      dup1\n      returndatacopy\n      revert(0x00, returndatasize)\n    tag_155:\n      pop\n      pop\n      pop\n      pop\n      mload(0x40)\n      returndatasize\n      not(0x1f)\n      0x1f\n      dup3\n      add\n      and\n      dup3\n      add\n      dup1\n      0x40\n      mstore\n      pop\n      dup2\n      add\n      swap1\n      tag_156\n      swap2\n      swap1\n      tag_157\n      jump\t// in\n    tag_156:\n        /* \"gcoin-staking.sol\":1618:1658  gcoin.balanceOf(msg.sender) >= _numcoins */\n      lt\n      iszero\n        /* \"gcoin-staking.sol\":1610:1713  require(gcoin.balanceOf(msg.sender) >= _numcoins, \"Error: You don't have enough coins in your wallet!\") */\n      tag_158\n      jumpi\n      mload(0x40)\n      shl(0xe5, 0x461bcd)\n      dup2\n      mstore\n        /* \"#utility.yul\":4716:4718   */\n      0x20\n        /* \"gcoin-staking.sol\":1610:1713  require(gcoin.balanceOf(msg.sender) >= _numcoins, \"Error: You don't have enough coins in your wallet!\") */\n      0x04\n      dup3\n      add\n        /* \"#utility.yul\":4698:4719   */\n      mstore\n        /* \"#utility.yul\":4755:4757   */\n      0x32\n        /* \"#utility.yul\":4735:4753   */\n      0x24\n      dup3\n      add\n        /* \"#utility.yul\":4728:4758   */\n      mstore\n        /* \"#utility.yul\":4794:4828   */\n      0x4572726f723a20596f7520646f6e2774206861766520656e6f75676820636f69\n        /* \"#utility.yul\":4774:4792   */\n      0x44\n      dup3\n      add\n        /* \"#utility.yul\":4767:4829   */\n      mstore\n        /* \"#utility.yul\":4865:4885   */\n      0x6e7320696e20796f75722077616c6c6574210000000000000000000000000000\n        /* \"#utility.yul\":4845:4863   */\n      0x64\n      dup3\n      add\n        /* \"#utility.yul\":4838:4886   */\n      mstore\n        /* \"#utility.yul\":4903:4922   */\n      0x84\n      add\n        /* \"gcoin-staking.sol\":1610:1713  require(gcoin.balanceOf(msg.sender) >= _numcoins, \"Error: You don't have enough coins in your wallet!\") */\n      tag_76\n        /* \"#utility.yul\":4514:4928   */\n      jump\n        /* \"gcoin-staking.sol\":1610:1713  require(gcoin.balanceOf(msg.sender) >= _numcoins, \"Error: You don't have enough coins in your wallet!\") */\n    tag_158:\n        /* \"gcoin-staking.sol\":1766:1822  gcoin.transferFrom(msg.sender, address(this), _numcoins) */\n      mload(0x40)\n      shl(0xe0, 0x23b872dd)\n      dup2\n      mstore\n        /* \"gcoin-staking.sol\":1785:1795  msg.sender */\n      caller\n        /* \"gcoin-staking.sol\":1766:1822  gcoin.transferFrom(msg.sender, address(this), _numcoins) */\n      0x04\n      dup3\n      add\n        /* \"#utility.yul\":5196:5230   */\n      mstore\n        /* \"gcoin-staking.sol\":1805:1809  this */\n      address\n        /* \"#utility.yul\":5246:5264   */\n      0x24\n      dup3\n      add\n        /* \"#utility.yul\":5239:5282   */\n      mstore\n        /* \"#utility.yul\":5298:5316   */\n      0x44\n      dup2\n      add\n        /* \"#utility.yul\":5291:5325   */\n      dup3\n      swap1\n      mstore\n        /* \"gcoin-staking.sol\":1766:1771  gcoin */\n      immutable(\"0x277ab82e5a4641341820a4a2933a62c1de997e42e92548657ae21b3728d580fe\")\n      sub(shl(0xa0, 0x01), 0x01)\n        /* \"gcoin-staking.sol\":1766:1784  gcoin.transferFrom */\n      and\n      swap1\n      0x23b872dd\n      swap1\n        /* \"#utility.yul\":5108:5126   */\n      0x64\n      add\n        /* \"gcoin-staking.sol\":1766:1822  gcoin.transferFrom(msg.sender, address(this), _numcoins) */\n      0x20\n      mload(0x40)\n      dup1\n      dup4\n      sub\n      dup2\n      0x00\n      dup8\n      gas\n      call\n      iszero\n      dup1\n      iszero\n      tag_164\n      jumpi\n      returndatasize\n      0x00\n      dup1\n      returndatacopy\n      revert(0x00, returndatasize)\n    tag_164:\n      pop\n      pop\n      pop\n      pop\n      mload(0x40)\n      returndatasize\n      not(0x1f)\n      0x1f\n      dup3\n      add\n      and\n      dup3\n      add\n      dup1\n      0x40\n      mstore\n      pop\n      dup2\n      add\n      swap1\n      tag_165\n      swap2\n      swap1\n      tag_166\n      jump\t// in\n    tag_165:\n        /* \"gcoin-staking.sol\":1758:1872  require(gcoin.transferFrom(msg.sender, address(this), _numcoins), \"Error: something went wrong when transferring\") */\n      tag_167\n      jumpi\n      mload(0x40)\n      shl(0xe5, 0x461bcd)\n      dup2\n      mstore\n        /* \"#utility.yul\":5820:5822   */\n      0x20\n        /* \"gcoin-staking.sol\":1758:1872  require(gcoin.transferFrom(msg.sender, address(this), _numcoins), \"Error: something went wrong when transferring\") */\n      0x04\n      dup3\n      add\n        /* \"#utility.yul\":5802:5823   */\n      mstore\n        /* \"#utility.yul\":5859:5861   */\n      0x2d\n        /* \"#utility.yul\":5839:5857   */\n      0x24\n      dup3\n      add\n        /* \"#utility.yul\":5832:5862   */\n      mstore\n        /* \"#utility.yul\":5898:5932   */\n      0x4572726f723a20736f6d657468696e672077656e742077726f6e67207768656e\n        /* \"#utility.yul\":5878:5896   */\n      0x44\n      dup3\n      add\n        /* \"#utility.yul\":5871:5933   */\n      mstore\n        /* \"#utility.yul\":5969:5984   */\n      0x207472616e7366657272696e6700000000000000000000000000000000000000\n        /* \"#utility.yul\":5949:5967   */\n      0x64\n      dup3\n      add\n        /* \"#utility.yul\":5942:5985   */\n      mstore\n        /* \"#utility.yul\":6002:6021   */\n      0x84\n      add\n        /* \"gcoin-staking.sol\":1758:1872  require(gcoin.transferFrom(msg.sender, address(this), _numcoins), \"Error: something went wrong when transferring\") */\n      tag_76\n        /* \"#utility.yul\":5618:6027   */\n      jump\n        /* \"gcoin-staking.sol\":1758:1872  require(gcoin.transferFrom(msg.sender, address(this), _numcoins), \"Error: something went wrong when transferring\") */\n    tag_167:\n        /* \"gcoin-staking.sol\":1933:1943  msg.sender */\n      caller\n        /* \"gcoin-staking.sol\":1925:1944  stakers[msg.sender] */\n      0x00\n      swap1\n      dup2\n      mstore\n        /* \"gcoin-staking.sol\":1925:1932  stakers */\n      0x03\n        /* \"gcoin-staking.sol\":1925:1944  stakers[msg.sender] */\n      0x20\n      mstore\n      0x40\n      dup2\n      keccak256\n        /* \"gcoin-staking.sol\":1925:1975  stakers[msg.sender].totalAmountStaked += _numcoins */\n      dup1\n      sload\n        /* \"gcoin-staking.sol\":1966:1975  _numcoins */\n      dup4\n      swap3\n        /* \"gcoin-staking.sol\":1925:1944  stakers[msg.sender] */\n      swap1\n        /* \"gcoin-staking.sol\":1925:1975  stakers[msg.sender].totalAmountStaked += _numcoins */\n      tag_170\n      swap1\n        /* \"gcoin-staking.sol\":1966:1975  _numcoins */\n      dup5\n      swap1\n        /* \"gcoin-staking.sol\":1925:1975  stakers[msg.sender].totalAmountStaked += _numcoins */\n      tag_87\n      jump\t// in\n    tag_170:\n      swap1\n      swap2\n      sstore\n      pop\n      pop\n        /* \"gcoin-staking.sol\":2016:2026  msg.sender */\n      caller\n        /* \"gcoin-staking.sol\":2008:2027  stakers[msg.sender] */\n      0x00\n      swap1\n      dup2\n      mstore\n        /* \"gcoin-staking.sol\":2008:2015  stakers */\n      0x03\n        /* \"gcoin-staking.sol\":2008:2027  stakers[msg.sender] */\n      0x20\n      mstore\n      0x40\n      dup2\n      keccak256\n        /* \"gcoin-staking.sol\":2046:2061  block.timestamp */\n      timestamp\n        /* \"gcoin-staking.sol\":2008:2043  stakers[msg.sender].timeLastUpdated */\n      0x01\n      swap2\n      dup3\n      add\n        /* \"gcoin-staking.sol\":2008:2061  stakers[msg.sender].timeLastUpdated = block.timestamp */\n      sstore\n        /* \"@openzeppelin/contracts/security/ReentrancyGuard.sol\":2628:2650   */\n      swap1\n      sstore\n      pop\n        /* \"gcoin-staking.sol\":1061:2068  function stake(uint256 _numcoins) external nonReentrant{... */\n      jump\t// out\n        /* \"gcoin-staking.sol\":5118:5327  function newRewardsTotal (uint256 _newRewards) public onlyOwner {... */\n    tag_66:\n        /* \"@openzeppelin/contracts/access/Ownable.sol\":1094:1107   */\n      tag_172\n        /* \"@openzeppelin/contracts/access/Ownable.sol\":1094:1105   */\n      tag_132\n        /* \"@openzeppelin/contracts/access/Ownable.sol\":1094:1107   */\n      jump\t// in\n    tag_172:\n        /* \"gcoin-staking.sol\":5311:5322  _newRewards */\n      dup1\n        /* \"gcoin-staking.sol\":5295:5307  rewardsTotal */\n      0x02\n      0x00\n        /* \"gcoin-staking.sol\":5295:5322  rewardsTotal += _newRewards */\n      dup3\n      dup3\n      sload\n      tag_95\n      swap2\n      swap1\n      tag_87\n      jump\t// in\n        /* \"@openzeppelin/contracts/access/Ownable.sol\":2081:2279   */\n    tag_69:\n        /* \"@openzeppelin/contracts/access/Ownable.sol\":1094:1107   */\n      tag_176\n        /* \"@openzeppelin/contracts/access/Ownable.sol\":1094:1105   */\n      tag_132\n        /* \"@openzeppelin/contracts/access/Ownable.sol\":1094:1107   */\n      jump\t// in\n    tag_176:\n      sub(shl(0xa0, 0x01), 0x01)\n        /* \"@openzeppelin/contracts/access/Ownable.sol\":2169:2191   */\n      dup2\n      and\n        /* \"@openzeppelin/contracts/access/Ownable.sol\":2161:2234   */\n      tag_178\n      jumpi\n      mload(0x40)\n      shl(0xe5, 0x461bcd)\n      dup2\n      mstore\n        /* \"#utility.yul\":6234:6236   */\n      0x20\n        /* \"@openzeppelin/contracts/access/Ownable.sol\":2161:2234   */\n      0x04\n      dup3\n      add\n        /* \"#utility.yul\":6216:6237   */\n      mstore\n        /* \"#utility.yul\":6273:6275   */\n      0x26\n        /* \"#utility.yul\":6253:6271   */\n      0x24\n      dup3\n      add\n        /* \"#utility.yul\":6246:6276   */\n      mstore\n        /* \"#utility.yul\":6312:6346   */\n      0x4f776e61626c653a206e6577206f776e657220697320746865207a65726f2061\n        /* \"#utility.yul\":6292:6310   */\n      0x44\n      dup3\n      add\n        /* \"#utility.yul\":6285:6347   */\n      mstore\n        /* \"#utility.yul\":6383:6391   */\n      0x6464726573730000000000000000000000000000000000000000000000000000\n        /* \"#utility.yul\":6363:6381   */\n      0x64\n      dup3\n      add\n        /* \"#utility.yul\":6356:6392   */\n      mstore\n        /* \"#utility.yul\":6409:6428   */\n      0x84\n      add\n        /* \"@openzeppelin/contracts/access/Ownable.sol\":2161:2234   */\n      tag_76\n        /* \"#utility.yul\":6032:6434   */\n      jump\n        /* \"@openzeppelin/contracts/access/Ownable.sol\":2161:2234   */\n    tag_178:\n        /* \"@openzeppelin/contracts/access/Ownable.sol\":2244:2272   */\n      tag_181\n        /* \"@openzeppelin/contracts/access/Ownable.sol\":2263:2271   */\n      dup2\n        /* \"@openzeppelin/contracts/access/Ownable.sol\":2244:2262   */\n      tag_135\n        /* \"@openzeppelin/contracts/access/Ownable.sol\":2244:2272   */\n      jump\t// in\n    tag_181:\n        /* \"@openzeppelin/contracts/access/Ownable.sol\":2081:2279   */\n      pop\n      jump\t// out\n        /* \"gcoin-staking.sol\":4304:4553  function calculateRewards(address _staker) internal view returns(uint256 _rewards){... */\n    tag_83:\n      sub(shl(0xa0, 0x01), 0x01)\n        /* \"gcoin-staking.sol\":4507:4523  stakers[_staker] */\n      dup2\n      and\n        /* \"gcoin-staking.sol\":4369:4385  uint256 _rewards */\n      0x00\n        /* \"gcoin-staking.sol\":4507:4523  stakers[_staker] */\n      swap1\n      dup2\n      mstore\n        /* \"gcoin-staking.sol\":4507:4514  stakers */\n      0x03\n        /* \"gcoin-staking.sol\":4507:4523  stakers[_staker] */\n      0x20\n      mstore\n      0x40\n      dup2\n      keccak256\n        /* \"gcoin-staking.sol\":4507:4541  stakers[_staker].totalAmountStaked */\n      dup1\n      sload\n        /* \"gcoin-staking.sol\":4471:4503  stakers[_staker].timeLastUpdated */\n      0x01\n      swap1\n      swap2\n      add\n      sload\n        /* \"gcoin-staking.sol\":4453:4503  block.timestamp - stakers[_staker].timeLastUpdated */\n      tag_184\n      swap1\n        /* \"gcoin-staking.sol\":4453:4468  block.timestamp */\n      timestamp\n        /* \"gcoin-staking.sol\":4453:4503  block.timestamp - stakers[_staker].timeLastUpdated */\n      tag_85\n      jump\t// in\n    tag_184:\n        /* \"gcoin-staking.sol\":4452:4541  (block.timestamp - stakers[_staker].timeLastUpdated) * stakers[_staker].totalAmountStaked */\n      tag_185\n      swap2\n      swap1\n      tag_122\n      jump\t// in\n    tag_185:\n        /* \"gcoin-staking.sol\":4440:4546  return(... */\n      swap3\n        /* \"gcoin-staking.sol\":4304:4553  function calculateRewards(address _staker) internal view returns(uint256 _rewards){... */\n      swap2\n      pop\n      pop\n      jump\t// out\n        /* \"@openzeppelin/contracts/token/ERC20/utils/SafeERC20.sol\":763:968   */\n    tag_89:\n        /* \"@openzeppelin/contracts/token/ERC20/utils/SafeERC20.sol\":902:960   */\n      0x40\n      dup1\n      mload\n      sub(shl(0xa0, 0x01), 0x01)\n        /* \"#utility.yul\":6631:6686   */\n      dup5\n      and\n        /* \"@openzeppelin/contracts/token/ERC20/utils/SafeERC20.sol\":902:960   */\n      0x24\n      dup3\n      add\n        /* \"#utility.yul\":6613:6687   */\n      mstore\n        /* \"#utility.yul\":6703:6721   */\n      0x44\n      dup1\n      dup3\n      add\n        /* \"#utility.yul\":6696:6730   */\n      dup5\n      swap1\n      mstore\n        /* \"@openzeppelin/contracts/token/ERC20/utils/SafeERC20.sol\":902:960   */\n      dup3\n      mload\n      dup1\n      dup4\n      sub\n      swap1\n      swap2\n      add\n      dup2\n      mstore\n        /* \"#utility.yul\":6586:6604   */\n      0x64\n      swap1\n      swap2\n      add\n        /* \"@openzeppelin/contracts/token/ERC20/utils/SafeERC20.sol\":902:960   */\n      swap1\n      swap2\n      mstore\n      0x20\n      dup2\n      add\n      dup1\n      mload\n      0xffffffffffffffffffffffffffffffffffffffffffffffffffffffff\n      and\n      shl(0xe0, 0xa9059cbb)\n      or\n      swap1\n      mstore\n        /* \"@openzeppelin/contracts/token/ERC20/utils/SafeERC20.sol\":875:961   */\n      tag_187\n      swap1\n        /* \"@openzeppelin/contracts/token/ERC20/utils/SafeERC20.sol\":895:900   */\n      dup5\n      swap1\n        /* \"@openzeppelin/contracts/token/ERC20/utils/SafeERC20.sol\":875:894   */\n      tag_190\n        /* \"@openzeppelin/contracts/token/ERC20/utils/SafeERC20.sol\":875:961   */\n      jump\t// in\n    tag_187:\n        /* \"@openzeppelin/contracts/token/ERC20/utils/SafeERC20.sol\":763:968   */\n      pop\n      pop\n      pop\n      jump\t// out\n        /* \"@openzeppelin/contracts/access/Ownable.sol\":1359:1489   */\n    tag_132:\n        /* \"@openzeppelin/contracts/access/Ownable.sol\":1273:1279   */\n      and(sub(shl(0xa0, 0x01), 0x01), sload(0x01))\n        /* \"@openzeppelin/contracts/utils/Context.sol\":719:729   */\n      caller\n        /* \"@openzeppelin/contracts/access/Ownable.sol\":1422:1445   */\n      eq\n        /* \"@openzeppelin/contracts/access/Ownable.sol\":1414:1482   */\n      tag_134\n      jumpi\n      mload(0x40)\n      shl(0xe5, 0x461bcd)\n      dup2\n      mstore\n        /* \"#utility.yul\":6943:6945   */\n      0x20\n        /* \"@openzeppelin/contracts/access/Ownable.sol\":1414:1482   */\n      0x04\n      dup3\n      add\n        /* \"#utility.yul\":6925:6946   */\n      dup2\n      swap1\n      mstore\n        /* \"#utility.yul\":6962:6980   */\n      0x24\n      dup3\n      add\n        /* \"#utility.yul\":6955:6985   */\n      mstore\n        /* \"#utility.yul\":7021:7055   */\n      0x4f776e61626c653a2063616c6c6572206973206e6f7420746865206f776e6572\n        /* \"#utility.yul\":7001:7019   */\n      0x44\n      dup3\n      add\n        /* \"#utility.yul\":6994:7056   */\n      mstore\n        /* \"#utility.yul\":7073:7091   */\n      0x64\n      add\n        /* \"@openzeppelin/contracts/access/Ownable.sol\":1414:1482   */\n      tag_76\n        /* \"#utility.yul\":6741:7097   */\n      jump\n        /* \"@openzeppelin/contracts/access/Ownable.sol\":2433:2620   */\n    tag_135:\n        /* \"@openzeppelin/contracts/access/Ownable.sol\":2525:2531   */\n      0x01\n      dup1\n      sload\n      sub(shl(0xa0, 0x01), 0x01)\n        /* \"@openzeppelin/contracts/access/Ownable.sol\":2541:2558   */\n      dup4\n      dup2\n      and\n      not(0xffffffffffffffffffffffffffffffffffffffff)\n      dup4\n      and\n      dup2\n      or\n      swap1\n      swap4\n      sstore\n        /* \"@openzeppelin/contracts/access/Ownable.sol\":2573:2613   */\n      mload(0x40)\n        /* \"@openzeppelin/contracts/access/Ownable.sol\":2525:2531   */\n      swap2\n      and\n      swap2\n        /* \"@openzeppelin/contracts/access/Ownable.sol\":2541:2558   */\n      swap1\n        /* \"@openzeppelin/contracts/access/Ownable.sol\":2525:2531   */\n      dup3\n      swap1\n        /* \"@openzeppelin/contracts/access/Ownable.sol\":2573:2613   */\n      0x8be0079c531659141344cd1fd0a4f28419497f9722a3daafe3b4186f6b6457e0\n      swap1\n        /* \"@openzeppelin/contracts/access/Ownable.sol\":2506:2522   */\n      0x00\n      swap1\n        /* \"@openzeppelin/contracts/access/Ownable.sol\":2573:2613   */\n      log3\n        /* \"@openzeppelin/contracts/access/Ownable.sol\":2496:2620   */\n      pop\n        /* \"@openzeppelin/contracts/access/Ownable.sol\":2433:2620   */\n      pop\n      jump\t// out\n        /* \"@openzeppelin/contracts/token/ERC20/utils/SafeERC20.sol\":3747:4453   */\n    tag_190:\n        /* \"@openzeppelin/contracts/token/ERC20/utils/SafeERC20.sol\":4166:4189   */\n      0x00\n        /* \"@openzeppelin/contracts/token/ERC20/utils/SafeERC20.sol\":4192:4261   */\n      tag_200\n        /* \"@openzeppelin/contracts/token/ERC20/utils/SafeERC20.sol\":4220:4224   */\n      dup3\n        /* \"@openzeppelin/contracts/token/ERC20/utils/SafeERC20.sol\":4192:4261   */\n      mload(0x40)\n      dup1\n      0x40\n      add\n      0x40\n      mstore\n      dup1\n      0x20\n      dup2\n      mstore\n      0x20\n      add\n      0x5361666545524332303a206c6f772d6c6576656c2063616c6c206661696c6564\n      dup2\n      mstore\n      pop\n        /* \"@openzeppelin/contracts/token/ERC20/utils/SafeERC20.sol\":4200:4205   */\n      dup6\n      sub(shl(0xa0, 0x01), 0x01)\n        /* \"@openzeppelin/contracts/token/ERC20/utils/SafeERC20.sol\":4192:4219   */\n      and\n      tag_201\n      swap1\n        /* \"@openzeppelin/contracts/token/ERC20/utils/SafeERC20.sol\":4192:4261   */\n      swap3\n      swap2\n      swap1\n      0xffffffff\n      and\n      jump\t// in\n    tag_200:\n        /* \"@openzeppelin/contracts/token/ERC20/utils/SafeERC20.sol\":4275:4292   */\n      dup1\n      mload\n        /* \"@openzeppelin/contracts/token/ERC20/utils/SafeERC20.sol\":4166:4261   */\n      swap1\n      swap2\n      pop\n        /* \"@openzeppelin/contracts/token/ERC20/utils/SafeERC20.sol\":4275:4296   */\n      iszero\n        /* \"@openzeppelin/contracts/token/ERC20/utils/SafeERC20.sol\":4271:4447   */\n      tag_187\n      jumpi\n        /* \"@openzeppelin/contracts/token/ERC20/utils/SafeERC20.sol\":4370:4380   */\n      dup1\n        /* \"@openzeppelin/contracts/token/ERC20/utils/SafeERC20.sol\":4359:4389   */\n      dup1\n      0x20\n      add\n      swap1\n      mload\n      dup2\n      add\n      swap1\n      tag_203\n      swap2\n      swap1\n      tag_166\n      jump\t// in\n    tag_203:\n        /* \"@openzeppelin/contracts/token/ERC20/utils/SafeERC20.sol\":4351:4436   */\n      tag_187\n      jumpi\n      mload(0x40)\n      shl(0xe5, 0x461bcd)\n      dup2\n      mstore\n        /* \"#utility.yul\":7304:7306   */\n      0x20\n        /* \"@openzeppelin/contracts/token/ERC20/utils/SafeERC20.sol\":4351:4436   */\n      0x04\n      dup3\n      add\n        /* \"#utility.yul\":7286:7307   */\n      mstore\n        /* \"#utility.yul\":7343:7345   */\n      0x2a\n        /* \"#utility.yul\":7323:7341   */\n      0x24\n      dup3\n      add\n        /* \"#utility.yul\":7316:7346   */\n      mstore\n        /* \"#utility.yul\":7382:7416   */\n      0x5361666545524332303a204552433230206f7065726174696f6e20646964206e\n        /* \"#utility.yul\":7362:7380   */\n      0x44\n      dup3\n      add\n        /* \"#utility.yul\":7355:7417   */\n      mstore\n        /* \"#utility.yul\":7453:7465   */\n      0x6f74207375636365656400000000000000000000000000000000000000000000\n        /* \"#utility.yul\":7433:7451   */\n      0x64\n      dup3\n      add\n        /* \"#utility.yul\":7426:7466   */\n      mstore\n        /* \"#utility.yul\":7483:7502   */\n      0x84\n      add\n        /* \"@openzeppelin/contracts/token/ERC20/utils/SafeERC20.sol\":4351:4436   */\n      tag_76\n        /* \"#utility.yul\":7102:7508   */\n      jump\n        /* \"@openzeppelin/contracts/utils/Address.sol\":3861:4084   */\n    tag_201:\n        /* \"@openzeppelin/contracts/utils/Address.sol\":3994:4006   */\n      0x60\n        /* \"@openzeppelin/contracts/utils/Address.sol\":4025:4077   */\n      tag_209\n        /* \"@openzeppelin/contracts/utils/Address.sol\":4047:4053   */\n      dup5\n        /* \"@openzeppelin/contracts/utils/Address.sol\":4055:4059   */\n      dup5\n        /* \"@openzeppelin/contracts/utils/Address.sol\":4061:4062   */\n      0x00\n        /* \"@openzeppelin/contracts/utils/Address.sol\":4064:4076   */\n      dup6\n        /* \"@openzeppelin/contracts/utils/Address.sol\":4025:4046   */\n      tag_210\n        /* \"@openzeppelin/contracts/utils/Address.sol\":4025:4077   */\n      jump\t// in\n    tag_209:\n        /* \"@openzeppelin/contracts/utils/Address.sol\":4018:4077   */\n      swap1\n      pop\n        /* \"@openzeppelin/contracts/utils/Address.sol\":3861:4084   */\n    tag_208:\n      swap4\n      swap3\n      pop\n      pop\n      pop\n      jump\t// out\n        /* \"@openzeppelin/contracts/utils/Address.sol\":4948:5447   */\n    tag_210:\n        /* \"@openzeppelin/contracts/utils/Address.sol\":5113:5125   */\n      0x60\n        /* \"@openzeppelin/contracts/utils/Address.sol\":5170:5175   */\n      dup3\n        /* \"@openzeppelin/contracts/utils/Address.sol\":5145:5166   */\n      selfbalance\n        /* \"@openzeppelin/contracts/utils/Address.sol\":5145:5175   */\n      lt\n      iszero\n        /* \"@openzeppelin/contracts/utils/Address.sol\":5137:5218   */\n      tag_212\n      jumpi\n      mload(0x40)\n      shl(0xe5, 0x461bcd)\n      dup2\n      mstore\n        /* \"#utility.yul\":7715:7717   */\n      0x20\n        /* \"@openzeppelin/contracts/utils/Address.sol\":5137:5218   */\n      0x04\n      dup3\n      add\n        /* \"#utility.yul\":7697:7718   */\n      mstore\n        /* \"#utility.yul\":7754:7756   */\n      0x26\n        /* \"#utility.yul\":7734:7752   */\n      0x24\n      dup3\n      add\n        /* \"#utility.yul\":7727:7757   */\n      mstore\n        /* \"#utility.yul\":7793:7827   */\n      0x416464726573733a20696e73756666696369656e742062616c616e636520666f\n        /* \"#utility.yul\":7773:7791   */\n      0x44\n      dup3\n      add\n        /* \"#utility.yul\":7766:7828   */\n      mstore\n        /* \"#utility.yul\":7864:7872   */\n      0x722063616c6c0000000000000000000000000000000000000000000000000000\n        /* \"#utility.yul\":7844:7862   */\n      0x64\n      dup3\n      add\n        /* \"#utility.yul\":7837:7873   */\n      mstore\n        /* \"#utility.yul\":7890:7909   */\n      0x84\n      add\n        /* \"@openzeppelin/contracts/utils/Address.sol\":5137:5218   */\n      tag_76\n        /* \"#utility.yul\":7513:7915   */\n      jump\n        /* \"@openzeppelin/contracts/utils/Address.sol\":5137:5218   */\n    tag_212:\n      sub(shl(0xa0, 0x01), 0x01)\n        /* \"@openzeppelin/contracts/utils/Address.sol\":1465:1484   */\n      dup6\n      and\n      extcodesize\n        /* \"@openzeppelin/contracts/utils/Address.sol\":5228:5288   */\n      tag_217\n      jumpi\n      mload(0x40)\n      shl(0xe5, 0x461bcd)\n      dup2\n      mstore\n        /* \"#utility.yul\":8122:8124   */\n      0x20\n        /* \"@openzeppelin/contracts/utils/Address.sol\":5228:5288   */\n      0x04\n      dup3\n      add\n        /* \"#utility.yul\":8104:8125   */\n      mstore\n        /* \"#utility.yul\":8161:8163   */\n      0x1d\n        /* \"#utility.yul\":8141:8159   */\n      0x24\n      dup3\n      add\n        /* \"#utility.yul\":8134:8164   */\n      mstore\n        /* \"#utility.yul\":8200:8231   */\n      0x416464726573733a2063616c6c20746f206e6f6e2d636f6e7472616374000000\n        /* \"#utility.yul\":8180:8198   */\n      0x44\n      dup3\n      add\n        /* \"#utility.yul\":8173:8232   */\n      mstore\n        /* \"#utility.yul\":8249:8267   */\n      0x64\n      add\n        /* \"@openzeppelin/contracts/utils/Address.sol\":5228:5288   */\n      tag_76\n        /* \"#utility.yul\":7920:8273   */\n      jump\n        /* \"@openzeppelin/contracts/utils/Address.sol\":5228:5288   */\n    tag_217:\n        /* \"@openzeppelin/contracts/utils/Address.sol\":5300:5312   */\n      0x00\n        /* \"@openzeppelin/contracts/utils/Address.sol\":5314:5337   */\n      dup1\n        /* \"@openzeppelin/contracts/utils/Address.sol\":5341:5347   */\n      dup7\n      sub(shl(0xa0, 0x01), 0x01)\n        /* \"@openzeppelin/contracts/utils/Address.sol\":5341:5352   */\n      and\n        /* \"@openzeppelin/contracts/utils/Address.sol\":5360:5365   */\n      dup6\n        /* \"@openzeppelin/contracts/utils/Address.sol\":5367:5371   */\n      dup8\n        /* \"@openzeppelin/contracts/utils/Address.sol\":5341:5372   */\n      mload(0x40)\n      tag_220\n      swap2\n      swap1\n      tag_221\n      jump\t// in\n    tag_220:\n      0x00\n      mload(0x40)\n      dup1\n      dup4\n      sub\n      dup2\n      dup6\n      dup8\n      gas\n      call\n      swap3\n      pop\n      pop\n      pop\n      returndatasize\n      dup1\n      0x00\n      dup2\n      eq\n      tag_224\n      jumpi\n      mload(0x40)\n      swap2\n      pop\n      and(add(returndatasize, 0x3f), not(0x1f))\n      dup3\n      add\n      0x40\n      mstore\n      returndatasize\n      dup3\n      mstore\n      returndatasize\n      0x00\n      0x20\n      dup5\n      add\n      returndatacopy\n      jump(tag_223)\n    tag_224:\n      0x60\n      swap2\n      pop\n    tag_223:\n      pop\n        /* \"@openzeppelin/contracts/utils/Address.sol\":5299:5372   */\n      swap2\n      pop\n      swap2\n      pop\n        /* \"@openzeppelin/contracts/utils/Address.sol\":5389:5440   */\n      tag_225\n        /* \"@openzeppelin/contracts/utils/Address.sol\":5406:5413   */\n      dup3\n        /* \"@openzeppelin/contracts/utils/Address.sol\":5415:5425   */\n      dup3\n        /* \"@openzeppelin/contracts/utils/Address.sol\":5427:5439   */\n      dup7\n        /* \"@openzeppelin/contracts/utils/Address.sol\":5389:5405   */\n      tag_226\n        /* \"@openzeppelin/contracts/utils/Address.sol\":5389:5440   */\n      jump\t// in\n    tag_225:\n        /* \"@openzeppelin/contracts/utils/Address.sol\":5382:5440   */\n      swap8\n        /* \"@openzeppelin/contracts/utils/Address.sol\":4948:5447   */\n      swap7\n      pop\n      pop\n      pop\n      pop\n      pop\n      pop\n      pop\n      jump\t// out\n        /* \"@openzeppelin/contracts/utils/Address.sol\":7561:8303   */\n    tag_226:\n        /* \"@openzeppelin/contracts/utils/Address.sol\":7707:7719   */\n      0x60\n        /* \"@openzeppelin/contracts/utils/Address.sol\":7735:7742   */\n      dup4\n        /* \"@openzeppelin/contracts/utils/Address.sol\":7731:8297   */\n      iszero\n      tag_229\n      jumpi\n      pop\n        /* \"@openzeppelin/contracts/utils/Address.sol\":7765:7775   */\n      dup2\n        /* \"@openzeppelin/contracts/utils/Address.sol\":7758:7775   */\n      jump(tag_208)\n        /* \"@openzeppelin/contracts/utils/Address.sol\":7731:8297   */\n    tag_229:\n        /* \"@openzeppelin/contracts/utils/Address.sol\":7876:7893   */\n      dup3\n      mload\n        /* \"@openzeppelin/contracts/utils/Address.sol\":7876:7897   */\n      iszero\n        /* \"@openzeppelin/contracts/utils/Address.sol\":7872:8287   */\n      tag_231\n      jumpi\n        /* \"@openzeppelin/contracts/utils/Address.sol\":8120:8130   */\n      dup3\n        /* \"@openzeppelin/contracts/utils/Address.sol\":8114:8131   */\n      mload\n        /* \"@openzeppelin/contracts/utils/Address.sol\":8180:8195   */\n      dup1\n        /* \"@openzeppelin/contracts/utils/Address.sol\":8167:8177   */\n      dup5\n        /* \"@openzeppelin/contracts/utils/Address.sol\":8163:8165   */\n      0x20\n        /* \"@openzeppelin/contracts/utils/Address.sol\":8159:8178   */\n      add\n        /* \"@openzeppelin/contracts/utils/Address.sol\":8152:8196   */\n      revert\n        /* \"@openzeppelin/contracts/utils/Address.sol\":7872:8287   */\n    tag_231:\n        /* \"@openzeppelin/contracts/utils/Address.sol\":8259:8271   */\n      dup2\n        /* \"@openzeppelin/contracts/utils/Address.sol\":8252:8272   */\n      mload(0x40)\n      shl(0xe5, 0x461bcd)\n      dup2\n      mstore\n      0x04\n      add\n      tag_76\n      swap2\n      swap1\n      tag_234\n      jump\t// in\n        /* \"#utility.yul\":14:194   */\n    tag_23:\n        /* \"#utility.yul\":73:79   */\n      0x00\n        /* \"#utility.yul\":126:128   */\n      0x20\n        /* \"#utility.yul\":114:123   */\n      dup3\n        /* \"#utility.yul\":105:112   */\n      dup5\n        /* \"#utility.yul\":101:124   */\n      sub\n        /* \"#utility.yul\":97:129   */\n      slt\n        /* \"#utility.yul\":94:146   */\n      iszero\n      tag_239\n      jumpi\n        /* \"#utility.yul\":142:143   */\n      0x00\n        /* \"#utility.yul\":139:140   */\n      dup1\n        /* \"#utility.yul\":132:144   */\n      revert\n        /* \"#utility.yul\":94:146   */\n    tag_239:\n      pop\n        /* \"#utility.yul\":165:188   */\n      calldataload\n      swap2\n        /* \"#utility.yul\":14:194   */\n      swap1\n      pop\n      jump\t// out\n        /* \"#utility.yul\":199:508   */\n    tag_32:\n        /* \"#utility.yul\":258:264   */\n      0x00\n        /* \"#utility.yul\":311:313   */\n      0x20\n        /* \"#utility.yul\":299:308   */\n      dup3\n        /* \"#utility.yul\":290:297   */\n      dup5\n        /* \"#utility.yul\":286:309   */\n      sub\n        /* \"#utility.yul\":282:314   */\n      slt\n        /* \"#utility.yul\":279:331   */\n      iszero\n      tag_241\n      jumpi\n        /* \"#utility.yul\":327:328   */\n      0x00\n        /* \"#utility.yul\":324:325   */\n      dup1\n        /* \"#utility.yul\":317:329   */\n      revert\n        /* \"#utility.yul\":279:331   */\n    tag_241:\n        /* \"#utility.yul\":366:375   */\n      dup2\n        /* \"#utility.yul\":353:376   */\n      calldataload\n      sub(shl(0xa0, 0x01), 0x01)\n        /* \"#utility.yul\":409:414   */\n      dup2\n        /* \"#utility.yul\":405:459   */\n      and\n        /* \"#utility.yul\":398:403   */\n      dup2\n        /* \"#utility.yul\":395:460   */\n      eq\n        /* \"#utility.yul\":385:478   */\n      tag_208\n      jumpi\n        /* \"#utility.yul\":474:475   */\n      0x00\n        /* \"#utility.yul\":471:472   */\n      dup1\n        /* \"#utility.yul\":464:476   */\n      revert\n        /* \"#utility.yul\":2360:2487   */\n    tag_235:\n        /* \"#utility.yul\":2421:2431   */\n      0x4e487b71\n        /* \"#utility.yul\":2416:2419   */\n      0xe0\n        /* \"#utility.yul\":2412:2432   */\n      shl\n        /* \"#utility.yul\":2409:2410   */\n      0x00\n        /* \"#utility.yul\":2402:2433   */\n      mstore\n        /* \"#utility.yul\":2452:2456   */\n      0x11\n        /* \"#utility.yul\":2449:2450   */\n      0x04\n        /* \"#utility.yul\":2442:2457   */\n      mstore\n        /* \"#utility.yul\":2476:2480   */\n      0x24\n        /* \"#utility.yul\":2473:2474   */\n      0x00\n        /* \"#utility.yul\":2466:2481   */\n      revert\n        /* \"#utility.yul\":2492:2617   */\n    tag_85:\n        /* \"#utility.yul\":2532:2536   */\n      0x00\n        /* \"#utility.yul\":2560:2561   */\n      dup3\n        /* \"#utility.yul\":2557:2558   */\n      dup3\n        /* \"#utility.yul\":2554:2562   */\n      lt\n        /* \"#utility.yul\":2551:2585   */\n      iszero\n      tag_252\n      jumpi\n        /* \"#utility.yul\":2565:2583   */\n      tag_252\n      tag_235\n      jump\t// in\n    tag_252:\n      pop\n        /* \"#utility.yul\":2602:2611   */\n      sub\n      swap1\n        /* \"#utility.yul\":2492:2617   */\n      jump\t// out\n        /* \"#utility.yul\":2622:2750   */\n    tag_87:\n        /* \"#utility.yul\":2662:2665   */\n      0x00\n        /* \"#utility.yul\":2693:2694   */\n      dup3\n        /* \"#utility.yul\":2689:2695   */\n      not\n        /* \"#utility.yul\":2686:2687   */\n      dup3\n        /* \"#utility.yul\":2683:2696   */\n      gt\n        /* \"#utility.yul\":2680:2719   */\n      iszero\n      tag_255\n      jumpi\n        /* \"#utility.yul\":2699:2717   */\n      tag_255\n      tag_235\n      jump\t// in\n    tag_255:\n      pop\n        /* \"#utility.yul\":2735:2744   */\n      add\n      swap1\n        /* \"#utility.yul\":2622:2750   */\n      jump\t// out\n        /* \"#utility.yul\":3253:3380   */\n    tag_103:\n        /* \"#utility.yul\":3314:3324   */\n      0x4e487b71\n        /* \"#utility.yul\":3309:3312   */\n      0xe0\n        /* \"#utility.yul\":3305:3325   */\n      shl\n        /* \"#utility.yul\":3302:3303   */\n      0x00\n        /* \"#utility.yul\":3295:3326   */\n      mstore\n        /* \"#utility.yul\":3345:3349   */\n      0x32\n        /* \"#utility.yul\":3342:3343   */\n      0x04\n        /* \"#utility.yul\":3335:3350   */\n      mstore\n        /* \"#utility.yul\":3369:3373   */\n      0x24\n        /* \"#utility.yul\":3366:3367   */\n      0x00\n        /* \"#utility.yul\":3359:3374   */\n      revert\n        /* \"#utility.yul\":3385:3520   */\n    tag_106:\n        /* \"#utility.yul\":3424:3427   */\n      0x00\n        /* \"#utility.yul\":3445:3462   */\n      0x01\n      dup3\n      add\n        /* \"#utility.yul\":3442:3485   */\n      tag_260\n      jumpi\n        /* \"#utility.yul\":3465:3483   */\n      tag_260\n      tag_235\n      jump\t// in\n    tag_260:\n      pop\n        /* \"#utility.yul\":3512:3513   */\n      0x01\n        /* \"#utility.yul\":3501:3514   */\n      add\n      swap1\n        /* \"#utility.yul\":3385:3520   */\n      jump\t// out\n        /* \"#utility.yul\":3525:3693   */\n    tag_122:\n        /* \"#utility.yul\":3565:3572   */\n      0x00\n        /* \"#utility.yul\":3631:3632   */\n      dup2\n        /* \"#utility.yul\":3627:3628   */\n      0x00\n        /* \"#utility.yul\":3623:3629   */\n      not\n        /* \"#utility.yul\":3619:3633   */\n      div\n        /* \"#utility.yul\":3616:3617   */\n      dup4\n        /* \"#utility.yul\":3613:3634   */\n      gt\n        /* \"#utility.yul\":3608:3609   */\n      dup3\n        /* \"#utility.yul\":3601:3610   */\n      iszero\n        /* \"#utility.yul\":3594:3611   */\n      iszero\n        /* \"#utility.yul\":3590:3635   */\n      and\n        /* \"#utility.yul\":3587:3658   */\n      iszero\n      tag_263\n      jumpi\n        /* \"#utility.yul\":3638:3656   */\n      tag_263\n      tag_235\n      jump\t// in\n    tag_263:\n      pop\n        /* \"#utility.yul\":3678:3687   */\n      mul\n      swap1\n        /* \"#utility.yul\":3525:3693   */\n      jump\t// out\n        /* \"#utility.yul\":3698:3915   */\n    tag_124:\n        /* \"#utility.yul\":3738:3739   */\n      0x00\n        /* \"#utility.yul\":3764:3765   */\n      dup3\n        /* \"#utility.yul\":3754:3886   */\n      tag_265\n      jumpi\n        /* \"#utility.yul\":3808:3818   */\n      0x4e487b71\n        /* \"#utility.yul\":3803:3806   */\n      0xe0\n        /* \"#utility.yul\":3799:3819   */\n      shl\n        /* \"#utility.yul\":3796:3797   */\n      0x00\n        /* \"#utility.yul\":3789:3820   */\n      mstore\n        /* \"#utility.yul\":3843:3847   */\n      0x12\n        /* \"#utility.yul\":3840:3841   */\n      0x04\n        /* \"#utility.yul\":3833:3848   */\n      mstore\n        /* \"#utility.yul\":3871:3875   */\n      0x24\n        /* \"#utility.yul\":3868:3869   */\n      0x00\n        /* \"#utility.yul\":3861:3876   */\n      revert\n        /* \"#utility.yul\":3754:3886   */\n    tag_265:\n      pop\n        /* \"#utility.yul\":3900:3909   */\n      div\n      swap1\n        /* \"#utility.yul\":3698:3915   */\n      jump\t// out\n        /* \"#utility.yul\":4325:4509   */\n    tag_157:\n        /* \"#utility.yul\":4395:4401   */\n      0x00\n        /* \"#utility.yul\":4448:4450   */\n      0x20\n        /* \"#utility.yul\":4436:4445   */\n      dup3\n        /* \"#utility.yul\":4427:4434   */\n      dup5\n        /* \"#utility.yul\":4423:4446   */\n      sub\n        /* \"#utility.yul\":4419:4451   */\n      slt\n        /* \"#utility.yul\":4416:4468   */\n      iszero\n      tag_268\n      jumpi\n        /* \"#utility.yul\":4464:4465   */\n      0x00\n        /* \"#utility.yul\":4461:4462   */\n      dup1\n        /* \"#utility.yul\":4454:4466   */\n      revert\n        /* \"#utility.yul\":4416:4468   */\n    tag_268:\n      pop\n        /* \"#utility.yul\":4487:4503   */\n      mload\n      swap2\n        /* \"#utility.yul\":4325:4509   */\n      swap1\n      pop\n      jump\t// out\n        /* \"#utility.yul\":5336:5613   */\n    tag_166:\n        /* \"#utility.yul\":5403:5409   */\n      0x00\n        /* \"#utility.yul\":5456:5458   */\n      0x20\n        /* \"#utility.yul\":5444:5453   */\n      dup3\n        /* \"#utility.yul\":5435:5442   */\n      dup5\n        /* \"#utility.yul\":5431:5454   */\n      sub\n        /* \"#utility.yul\":5427:5459   */\n      slt\n        /* \"#utility.yul\":5424:5476   */\n      iszero\n      tag_272\n      jumpi\n        /* \"#utility.yul\":5472:5473   */\n      0x00\n        /* \"#utility.yul\":5469:5470   */\n      dup1\n        /* \"#utility.yul\":5462:5474   */\n      revert\n        /* \"#utility.yul\":5424:5476   */\n    tag_272:\n        /* \"#utility.yul\":5504:5513   */\n      dup2\n        /* \"#utility.yul\":5498:5514   */\n      mload\n        /* \"#utility.yul\":5557:5562   */\n      dup1\n        /* \"#utility.yul\":5550:5563   */\n      iszero\n        /* \"#utility.yul\":5543:5564   */\n      iszero\n        /* \"#utility.yul\":5536:5541   */\n      dup2\n        /* \"#utility.yul\":5533:5565   */\n      eq\n        /* \"#utility.yul\":5523:5583   */\n      tag_208\n      jumpi\n        /* \"#utility.yul\":5579:5580   */\n      0x00\n        /* \"#utility.yul\":5576:5577   */\n      dup1\n        /* \"#utility.yul\":5569:5581   */\n      revert\n        /* \"#utility.yul\":8278:8536   */\n    tag_236:\n        /* \"#utility.yul\":8350:8351   */\n      0x00\n        /* \"#utility.yul\":8360:8473   */\n    tag_282:\n        /* \"#utility.yul\":8374:8380   */\n      dup4\n        /* \"#utility.yul\":8371:8372   */\n      dup2\n        /* \"#utility.yul\":8368:8381   */\n      lt\n        /* \"#utility.yul\":8360:8473   */\n      iszero\n      tag_284\n      jumpi\n        /* \"#utility.yul\":8450:8461   */\n      dup2\n      dup2\n      add\n        /* \"#utility.yul\":8444:8462   */\n      mload\n        /* \"#utility.yul\":8431:8442   */\n      dup4\n      dup3\n      add\n        /* \"#utility.yul\":8424:8463   */\n      mstore\n        /* \"#utility.yul\":8396:8398   */\n      0x20\n        /* \"#utility.yul\":8389:8399   */\n      add\n        /* \"#utility.yul\":8360:8473   */\n      jump(tag_282)\n    tag_284:\n        /* \"#utility.yul\":8491:8497   */\n      dup4\n        /* \"#utility.yul\":8488:8489   */\n      dup2\n        /* \"#utility.yul\":8485:8498   */\n      gt\n        /* \"#utility.yul\":8482:8530   */\n      iszero\n      tag_285\n      jumpi\n        /* \"#utility.yul\":8526:8527   */\n      0x00\n        /* \"#utility.yul\":8517:8523   */\n      dup5\n        /* \"#utility.yul\":8512:8515   */\n      dup5\n        /* \"#utility.yul\":8508:8524   */\n      add\n        /* \"#utility.yul\":8501:8528   */\n      mstore\n        /* \"#utility.yul\":8482:8530   */\n    tag_285:\n      pop\n        /* \"#utility.yul\":8278:8536   */\n      pop\n      pop\n      pop\n      jump\t// out\n        /* \"#utility.yul\":8541:8815   */\n    tag_221:\n        /* \"#utility.yul\":8670:8673   */\n      0x00\n        /* \"#utility.yul\":8708:8714   */\n      dup3\n        /* \"#utility.yul\":8702:8715   */\n      mload\n        /* \"#utility.yul\":8724:8777   */\n      tag_287\n        /* \"#utility.yul\":8770:8776   */\n      dup2\n        /* \"#utility.yul\":8765:8768   */\n      dup5\n        /* \"#utility.yul\":8758:8762   */\n      0x20\n        /* \"#utility.yul\":8750:8756   */\n      dup8\n        /* \"#utility.yul\":8746:8763   */\n      add\n        /* \"#utility.yul\":8724:8777   */\n      tag_236\n      jump\t// in\n    tag_287:\n        /* \"#utility.yul\":8793:8809   */\n      swap2\n      swap1\n      swap2\n      add\n      swap3\n        /* \"#utility.yul\":8541:8815   */\n      swap2\n      pop\n      pop\n      jump\t// out\n        /* \"#utility.yul\":8820:9203   */\n    tag_234:\n        /* \"#utility.yul\":8969:8971   */\n      0x20\n        /* \"#utility.yul\":8958:8967   */\n      dup2\n        /* \"#utility.yul\":8951:8972   */\n      mstore\n        /* \"#utility.yul\":8932:8936   */\n      0x00\n        /* \"#utility.yul\":9001:9007   */\n      dup3\n        /* \"#utility.yul\":8995:9008   */\n      mload\n        /* \"#utility.yul\":9044:9050   */\n      dup1\n        /* \"#utility.yul\":9039:9041   */\n      0x20\n        /* \"#utility.yul\":9028:9037   */\n      dup5\n        /* \"#utility.yul\":9024:9042   */\n      add\n        /* \"#utility.yul\":9017:9051   */\n      mstore\n        /* \"#utility.yul\":9060:9126   */\n      tag_289\n        /* \"#utility.yul\":9119:9125   */\n      dup2\n        /* \"#utility.yul\":9114:9116   */\n      0x40\n        /* \"#utility.yul\":9103:9112   */\n      dup6\n        /* \"#utility.yul\":9099:9117   */\n      add\n        /* \"#utility.yul\":9094:9096   */\n      0x20\n        /* \"#utility.yul\":9086:9092   */\n      dup8\n        /* \"#utility.yul\":9082:9097   */\n      add\n        /* \"#utility.yul\":9060:9126   */\n      tag_236\n      jump\t// in\n    tag_289:\n        /* \"#utility.yul\":9187:9189   */\n      0x1f\n        /* \"#utility.yul\":9166:9181   */\n      add\n      not(0x1f)\n        /* \"#utility.yul\":9162:9191   */\n      and\n        /* \"#utility.yul\":9147:9192   */\n      swap2\n      swap1\n      swap2\n      add\n        /* \"#utility.yul\":9194:9196   */\n      0x40\n        /* \"#utility.yul\":9143:9197   */\n      add\n      swap3\n        /* \"#utility.yul\":8820:9203   */\n      swap2\n      pop\n      pop\n      jump\t// out\n\n    auxdata: 0xa26469706673582212207048d2db90495fbf76e05f7972c41e445367cc949e37d35de8bbc092a77533fe64736f6c634300080d0033\n}\n",
    "bytecode": {
      "linkReferences": {},
      "object": "60a0604052600060025534801561001557600080fd5b5060405161128b38038061128b833981016040819052610034916100a5565b600160005561004233610053565b6001600160a01b03166080526100d5565b600180546001600160a01b038381166001600160a01b0319831681179093556040519116919082907f8be0079c531659141344cd1fd0a4f28419497f9722a3daafe3b4186f6b6457e090600090a35050565b6000602082840312156100b757600080fd5b81516001600160a01b03811681146100ce57600080fd5b9392505050565b60805161117f61010c6000396000818161017b0152818161040d0152818161051a015281816108e101526109ea015261117f6000f3fe608060405234801561001057600080fd5b50600436106100f55760003560e01c80638da5cb5b11610097578063a694fc3a11610066578063a694fc3a1461025c578063ee5fa7131461026f578063f2fde38b14610282578063f854a27f1461029557600080fd5b80638da5cb5b146101b55780639168ae72146101c65780639d43e5e01461021d578063a13e1fc31461023057600080fd5b806363c28db1116100d357806363c28db11461012a5780636e83ca6214610166578063715018a61461016e5780638c9c11581461017657600080fd5b80632e1a7d4d146100fa578063372500ab1461010f5780635f05927a14610117575b600080fd5b61010d610108366004610f98565b6102c2565b005b61010d610450565b61010d610125366004610f98565b610563565b610153610138366004610fb1565b6001600160a01b031660009081526003602052604090205490565b6040519081526020015b60405180910390f35b600254610153565b61010d610708565b61019d7f000000000000000000000000000000000000000000000000000000000000000081565b6040516001600160a01b03909116815260200161015d565b6001546001600160a01b031661019d565b6101fd6101d4366004610fb1565b600360208190526000918252604090912080546001820154600283015492909301549092919084565b60408051948552602085019390935291830152606082015260800161015d565b61010d61022b366004610fb1565b61071c565b61015361023e366004610fb1565b6001600160a01b031660009081526003602052604090206002015490565b61010d61026a366004610f98565b610775565b61010d61027d366004610f98565b610b10565b61010d610290366004610fb1565b610b2a565b6101536102a3366004610fb1565b6001600160a01b03166000908152600360208190526040909120015490565b6002600054036103195760405162461bcd60e51b815260206004820152601f60248201527f5265656e7472616e637947756172643a207265656e7472616e742063616c6c0060448201526064015b60405180910390fd5b60026000908155338152600360205260409020548111156103a4576040805162461bcd60e51b81526020600482015260248101919091527f4572726f723a20596f752068617665206e6f74207374616b656420656e6f756760448201527f6820636f696e7320746f207769746864726177207468697320616d6f756e74216064820152608401610310565b60006103af33610bba565b336000908152600360205260408120805492935084929091906103d3908490610ff0565b909155505033600090815260036020526040812060020180548392906103fa908490611007565b9091555061043490506001600160a01b037f0000000000000000000000000000000000000000000000000000000000000000163384610bf4565b5050336000908152600360205260408120426001918201559055565b33600090815260036020819052604090912001546104fc5760405162461bcd60e51b815260206004820152605960248201527f4572726f723a20596f752063757272656e746c792068617665206e6f2072657760448201527f6172647320746f20636c61696d2e20506c6561736520636865636b206261636b60648201527f2061742074686520656e64206f6620746865206d6f6e74682e00000000000000608482015260a401610310565b336000818152600360208190526040822001805491905590610549907f00000000000000000000000000000000000000000000000000000000000000006001600160a01b03169083610bf4565b806002600082825461055b9190610ff0565b909155505050565b60005b6004548110156105b3576105a0600482815481106105865761058661101f565b6000918252602090912001546001600160a01b0316610bba565b50806105ab81611035565b915050610566565b506000805b60045481101561061f5760036000600483815481106105d9576105d961101f565b60009182526020808320909101546001600160a01b0316835282019290925260400190206002015461060b9083611007565b91508061061781611035565b9150506105b8565b5060005b6004548110156106ec576000600482815481106106425761064261101f565b60009182526020808320909101546001600160a01b03168083526003909152604090912060020154909150839061067a90869061104e565b610684919061106d565b6001600160a01b038216600090815260036020819052604082200180549091906106af908490611007565b90915550506001600160a01b03166000908152600360205260408120600281019190915542600190910155806106e481611035565b915050610623565b5081600260008282546106ff9190611007565b90915550505050565b610710610c60565b61071a6000610cba565b565b61072581610bba565b6001600160a01b03821660009081526003602052604081206002018054909190610750908490611007565b90915550506001600160a01b0316600090815260036020526040902042600190910155565b6002600054036107c75760405162461bcd60e51b815260206004820152601f60248201527f5265656e7472616e637947756172643a207265656e7472616e742063616c6c006044820152606401610310565b60026000908155338152600360205260409020541561081e5760006107eb33610bba565b33600090815260036020526040812060020180549293508392909190610812908490611007565b9091555061086e915050565b600480546001810182556000919091527f8a35acfbc15ff81a39ae7d344fd709f28e8600b4aa8c65c6b64bfe7fe36bd19b01805473ffffffffffffffffffffffffffffffffffffffff1916331790555b600081116108ca5760405162461bcd60e51b8152602060048201526024808201527f596f75206e65656420746f207374616b65206d6f7265207468616e203020636f60448201526334b7399760e11b6064820152608401610310565b6040516370a0823160e01b815233600482015281907f00000000000000000000000000000000000000000000000000000000000000006001600160a01b0316906370a0823190602401602060405180830381865afa158015610930573d6000803e3d6000fd5b505050506040513d601f19601f82011682018060405250810190610954919061108f565b10156109c85760405162461bcd60e51b815260206004820152603260248201527f4572726f723a20596f7520646f6e2774206861766520656e6f75676820636f6960448201527f6e7320696e20796f75722077616c6c65742100000000000000000000000000006064820152608401610310565b6040516323b872dd60e01b8152336004820152306024820152604481018290527f00000000000000000000000000000000000000000000000000000000000000006001600160a01b0316906323b872dd906064016020604051808303816000875af1158015610a3b573d6000803e3d6000fd5b505050506040513d601f19601f82011682018060405250810190610a5f91906110a8565b610ad15760405162461bcd60e51b815260206004820152602d60248201527f4572726f723a20736f6d657468696e672077656e742077726f6e67207768656e60448201527f207472616e7366657272696e67000000000000000000000000000000000000006064820152608401610310565b3360009081526003602052604081208054839290610af0908490611007565b909155505033600090815260036020526040812042600191820155905550565b610b18610c60565b806002600082825461055b9190611007565b610b32610c60565b6001600160a01b038116610bae5760405162461bcd60e51b815260206004820152602660248201527f4f776e61626c653a206e6577206f776e657220697320746865207a65726f206160448201527f64647265737300000000000000000000000000000000000000000000000000006064820152608401610310565b610bb781610cba565b50565b6001600160a01b03811660009081526003602052604081208054600190910154610be49042610ff0565b610bee919061104e565b92915050565b604080516001600160a01b038416602482015260448082018490528251808303909101815260649091019091526020810180517bffffffffffffffffffffffffffffffffffffffffffffffffffffffff1663a9059cbb60e01b179052610c5b908490610d19565b505050565b6001546001600160a01b0316331461071a5760405162461bcd60e51b815260206004820181905260248201527f4f776e61626c653a2063616c6c6572206973206e6f7420746865206f776e65726044820152606401610310565b600180546001600160a01b0383811673ffffffffffffffffffffffffffffffffffffffff19831681179093556040519116919082907f8be0079c531659141344cd1fd0a4f28419497f9722a3daafe3b4186f6b6457e090600090a35050565b6000610d6e826040518060400160405280602081526020017f5361666545524332303a206c6f772d6c6576656c2063616c6c206661696c6564815250856001600160a01b0316610dfe9092919063ffffffff16565b805190915015610c5b5780806020019051810190610d8c91906110a8565b610c5b5760405162461bcd60e51b815260206004820152602a60248201527f5361666545524332303a204552433230206f7065726174696f6e20646964206e60448201527f6f742073756363656564000000000000000000000000000000000000000000006064820152608401610310565b6060610e0d8484600085610e17565b90505b9392505050565b606082471015610e8f5760405162461bcd60e51b815260206004820152602660248201527f416464726573733a20696e73756666696369656e742062616c616e636520666f60448201527f722063616c6c00000000000000000000000000000000000000000000000000006064820152608401610310565b6001600160a01b0385163b610ee65760405162461bcd60e51b815260206004820152601d60248201527f416464726573733a2063616c6c20746f206e6f6e2d636f6e74726163740000006044820152606401610310565b600080866001600160a01b03168587604051610f0291906110fa565b60006040518083038185875af1925050503d8060008114610f3f576040519150601f19603f3d011682016040523d82523d6000602084013e610f44565b606091505b5091509150610f54828286610f5f565b979650505050505050565b60608315610f6e575081610e10565b825115610f7e5782518084602001fd5b8160405162461bcd60e51b81526004016103109190611116565b600060208284031215610faa57600080fd5b5035919050565b600060208284031215610fc357600080fd5b81356001600160a01b0381168114610e1057600080fd5b634e487b7160e01b600052601160045260246000fd5b60008282101561100257611002610fda565b500390565b6000821982111561101a5761101a610fda565b500190565b634e487b7160e01b600052603260045260246000fd5b60006001820161104757611047610fda565b5060010190565b600081600019048311821515161561106857611068610fda565b500290565b60008261108a57634e487b7160e01b600052601260045260246000fd5b500490565b6000602082840312156110a157600080fd5b5051919050565b6000602082840312156110ba57600080fd5b81518015158114610e1057600080fd5b60005b838110156110e55781810151838201526020016110cd565b838111156110f4576000848401525b50505050565b6000825161110c8184602087016110ca565b9190910192915050565b60208152600082518060208401526111358160408501602087016110ca565b601f01601f1916919091016040019291505056fea26469706673582212207048d2db90495fbf76e05f7972c41e445367cc949e37d35de8bbc092a77533fe64736f6c634300080d0033",
      "opcodes": "PUSH1 0xA0 PUSH1 0x40 MSTORE PUSH1 0x0 PUSH1 0x2 SSTORE CALLVALUE DUP1 ISZERO PUSH2 0x15 JUMPI PUSH1 0x0 DUP1 REVERT JUMPDEST POP PUSH1 0x40 MLOAD PUSH2 0x128B CODESIZE SUB DUP1 PUSH2 0x128B DUP4 CODECOPY DUP2 ADD PUSH1 0x40 DUP2 SWAP1 MSTORE PUSH2 0x34 SWAP2 PUSH2 0xA5 JUMP JUMPDEST PUSH1 0x1 PUSH1 0x0 SSTORE PUSH2 0x42 CALLER PUSH2 0x53 JUMP JUMPDEST PUSH1 0x1 PUSH1 0x1 PUSH1 0xA0 SHL SUB AND PUSH1 0x80 MSTORE PUSH2 0xD5 JUMP JUMPDEST PUSH1 0x1 DUP1 SLOAD PUSH1 0x1 PUSH1 0x1 PUSH1 0xA0 SHL SUB DUP4 DUP2 AND PUSH1 0x1 PUSH1 0x1 PUSH1 0xA0 SHL SUB NOT DUP4 AND DUP2 OR SWAP1 SWAP4 SSTORE PUSH1 0x40 MLOAD SWAP2 AND SWAP2 SWAP1 DUP3 SWAP1 PUSH32 0x8BE0079C531659141344CD1FD0A4F28419497F9722A3DAAFE3B4186F6B6457E0 SWAP1 PUSH1 0x0 SWAP1 LOG3 POP POP JUMP JUMPDEST PUSH1 0x0 PUSH1 0x20 DUP3 DUP5 SUB SLT ISZERO PUSH2 0xB7 JUMPI PUSH1 0x0 DUP1 REVERT JUMPDEST DUP2 MLOAD PUSH1 0x1 PUSH1 0x1 PUSH1 0xA0 SHL SUB DUP2 AND DUP2 EQ PUSH2 0xCE JUMPI PUSH1 0x0 DUP1 REVERT JUMPDEST SWAP4 SWAP3 POP POP POP JUMP JUMPDEST PUSH1 0x80 MLOAD PUSH2 0x117F PUSH2 0x10C PUSH1 0x0 CODECOPY PUSH1 0x0 DUP2 DUP2 PUSH2 0x17B ADD MSTORE DUP2 DUP2 PUSH2 0x40D ADD MSTORE DUP2 DUP2 PUSH2 0x51A ADD MSTORE DUP2 DUP2 PUSH2 0x8E1 ADD MSTORE PUSH2 0x9EA ADD MSTORE PUSH2 0x117F PUSH1 0x0 RETURN INVALID PUSH1 0x80 PUSH1 0x40 MSTORE CALLVALUE DUP1 ISZERO PUSH2 0x10 JUMPI PUSH1 0x0 DUP1 REVERT JUMPDEST POP PUSH1 0x4 CALLDATASIZE LT PUSH2 0xF5 JUMPI PUSH1 0x0 CALLDATALOAD PUSH1 0xE0 SHR DUP1 PUSH4 0x8DA5CB5B GT PUSH2 0x97 JUMPI DUP1 PUSH4 0xA694FC3A GT PUSH2 0x66 JUMPI DUP1 PUSH4 0xA694FC3A EQ PUSH2 0x25C JUMPI DUP1 PUSH4 0xEE5FA713 EQ PUSH2 0x26F JUMPI DUP1 PUSH4 0xF2FDE38B EQ PUSH2 0x282 JUMPI DUP1 PUSH4 0xF854A27F EQ PUSH2 0x295 JUMPI PUSH1 0x0 DUP1 REVERT JUMPDEST DUP1 PUSH4 0x8DA5CB5B EQ PUSH2 0x1B5 JUMPI DUP1 PUSH4 0x9168AE72 EQ PUSH2 0x1C6 JUMPI DUP1 PUSH4 0x9D43E5E0 EQ PUSH2 0x21D JUMPI DUP1 PUSH4 0xA13E1FC3 EQ PUSH2 0x230 JUMPI PUSH1 0x0 DUP1 REVERT JUMPDEST DUP1 PUSH4 0x63C28DB1 GT PUSH2 0xD3 JUMPI DUP1 PUSH4 0x63C28DB1 EQ PUSH2 0x12A JUMPI DUP1 PUSH4 0x6E83CA62 EQ PUSH2 0x166 JUMPI DUP1 PUSH4 0x715018A6 EQ PUSH2 0x16E JUMPI DUP1 PUSH4 0x8C9C1158 EQ PUSH2 0x176 JUMPI PUSH1 0x0 DUP1 REVERT JUMPDEST DUP1 PUSH4 0x2E1A7D4D EQ PUSH2 0xFA JUMPI DUP1 PUSH4 0x372500AB EQ PUSH2 0x10F JUMPI DUP1 PUSH4 0x5F05927A EQ PUSH2 0x117 JUMPI JUMPDEST PUSH1 0x0 DUP1 REVERT JUMPDEST PUSH2 0x10D PUSH2 0x108 CALLDATASIZE PUSH1 0x4 PUSH2 0xF98 JUMP JUMPDEST PUSH2 0x2C2 JUMP JUMPDEST STOP JUMPDEST PUSH2 0x10D PUSH2 0x450 JUMP JUMPDEST PUSH2 0x10D PUSH2 0x125 CALLDATASIZE PUSH1 0x4 PUSH2 0xF98 JUMP JUMPDEST PUSH2 0x563 JUMP JUMPDEST PUSH2 0x153 PUSH2 0x138 CALLDATASIZE PUSH1 0x4 PUSH2 0xFB1 JUMP JUMPDEST PUSH1 0x1 PUSH1 0x1 PUSH1 0xA0 SHL SUB AND PUSH1 0x0 SWAP1 DUP2 MSTORE PUSH1 0x3 PUSH1 0x20 MSTORE PUSH1 0x40 SWAP1 KECCAK256 SLOAD SWAP1 JUMP JUMPDEST PUSH1 0x40 MLOAD SWAP1 DUP2 MSTORE PUSH1 0x20 ADD JUMPDEST PUSH1 0x40 MLOAD DUP1 SWAP2 SUB SWAP1 RETURN JUMPDEST PUSH1 0x2 SLOAD PUSH2 0x153 JUMP JUMPDEST PUSH2 0x10D PUSH2 0x708 JUMP JUMPDEST PUSH2 0x19D PUSH32 0x0 DUP2 JUMP JUMPDEST PUSH1 0x40 MLOAD PUSH1 0x1 PUSH1 0x1 PUSH1 0xA0 SHL SUB SWAP1 SWAP2 AND DUP2 MSTORE PUSH1 0x20 ADD PUSH2 0x15D JUMP JUMPDEST PUSH1 0x1 SLOAD PUSH1 0x1 PUSH1 0x1 PUSH1 0xA0 SHL SUB AND PUSH2 0x19D JUMP JUMPDEST PUSH2 0x1FD PUSH2 0x1D4 CALLDATASIZE PUSH1 0x4 PUSH2 0xFB1 JUMP JUMPDEST PUSH1 0x3 PUSH1 0x20 DUP2 SWAP1 MSTORE PUSH1 0x0 SWAP2 DUP3 MSTORE PUSH1 0x40 SWAP1 SWAP2 KECCAK256 DUP1 SLOAD PUSH1 0x1 DUP3 ADD SLOAD PUSH1 0x2 DUP4 ADD SLOAD SWAP3 SWAP1 SWAP4 ADD SLOAD SWAP1 SWAP3 SWAP2 SWAP1 DUP5 JUMP JUMPDEST PUSH1 0x40 DUP1 MLOAD SWAP5 DUP6 MSTORE PUSH1 0x20 DUP6 ADD SWAP4 SWAP1 SWAP4 MSTORE SWAP2 DUP4 ADD MSTORE PUSH1 0x60 DUP3 ADD MSTORE PUSH1 0x80 ADD PUSH2 0x15D JUMP JUMPDEST PUSH2 0x10D PUSH2 0x22B CALLDATASIZE PUSH1 0x4 PUSH2 0xFB1 JUMP JUMPDEST PUSH2 0x71C JUMP JUMPDEST PUSH2 0x153 PUSH2 0x23E CALLDATASIZE PUSH1 0x4 PUSH2 0xFB1 JUMP JUMPDEST PUSH1 0x1 PUSH1 0x1 PUSH1 0xA0 SHL SUB AND PUSH1 0x0 SWAP1 DUP2 MSTORE PUSH1 0x3 PUSH1 0x20 MSTORE PUSH1 0x40 SWAP1 KECCAK256 PUSH1 0x2 ADD SLOAD SWAP1 JUMP JUMPDEST PUSH2 0x10D PUSH2 0x26A CALLDATASIZE PUSH1 0x4 PUSH2 0xF98 JUMP JUMPDEST PUSH2 0x775 JUMP JUMPDEST PUSH2 0x10D PUSH2 0x27D CALLDATASIZE PUSH1 0x4 PUSH2 0xF98 JUMP JUMPDEST PUSH2 0xB10 JUMP JUMPDEST PUSH2 0x10D PUSH2 0x290 CALLDATASIZE PUSH1 0x4 PUSH2 0xFB1 JUMP JUMPDEST PUSH2 0xB2A JUMP JUMPDEST PUSH2 0x153 PUSH2 0x2A3 CALLDATASIZE PUSH1 0x4 PUSH2 0xFB1 JUMP JUMPDEST PUSH1 0x1 PUSH1 0x1 PUSH1 0xA0 SHL SUB AND PUSH1 0x0 SWAP1 DUP2 MSTORE PUSH1 0x3 PUSH1 0x20 DUP2 SWAP1 MSTORE PUSH1 0x40 SWAP1 SWAP2 KECCAK256 ADD SLOAD SWAP1 JUMP JUMPDEST PUSH1 0x2 PUSH1 0x0 SLOAD SUB PUSH2 0x319 JUMPI PUSH1 0x40 MLOAD PUSH3 0x461BCD PUSH1 0xE5 SHL DUP2 MSTORE PUSH1 0x20 PUSH1 0x4 DUP3 ADD MSTORE PUSH1 0x1F PUSH1 0x24 DUP3 ADD MSTORE PUSH32 0x5265656E7472616E637947756172643A207265656E7472616E742063616C6C00 PUSH1 0x44 DUP3 ADD MSTORE PUSH1 0x64 ADD JUMPDEST PUSH1 0x40 MLOAD DUP1 SWAP2 SUB SWAP1 REVERT JUMPDEST PUSH1 0x2 PUSH1 0x0 SWAP1 DUP2 SSTORE CALLER DUP2 MSTORE PUSH1 0x3 PUSH1 0x20 MSTORE PUSH1 0x40 SWAP1 KECCAK256 SLOAD DUP2 GT ISZERO PUSH2 0x3A4 JUMPI PUSH1 0x40 DUP1 MLOAD PUSH3 0x461BCD PUSH1 0xE5 SHL DUP2 MSTORE PUSH1 0x20 PUSH1 0x4 DUP3 ADD MSTORE PUSH1 0x24 DUP2 ADD SWAP2 SWAP1 SWAP2 MSTORE PUSH32 0x4572726F723A20596F752068617665206E6F74207374616B656420656E6F7567 PUSH1 0x44 DUP3 ADD MSTORE PUSH32 0x6820636F696E7320746F207769746864726177207468697320616D6F756E7421 PUSH1 0x64 DUP3 ADD MSTORE PUSH1 0x84 ADD PUSH2 0x310 JUMP JUMPDEST PUSH1 0x0 PUSH2 0x3AF CALLER PUSH2 0xBBA JUMP JUMPDEST CALLER PUSH1 0x0 SWAP1 DUP2 MSTORE PUSH1 0x3 PUSH1 0x20 MSTORE PUSH1 0x40 DUP2 KECCAK256 DUP1 SLOAD SWAP3 SWAP4 POP DUP5 SWAP3 SWAP1 SWAP2 SWAP1 PUSH2 0x3D3 SWAP1 DUP5 SWAP1 PUSH2 0xFF0 JUMP JUMPDEST SWAP1 SWAP2 SSTORE POP POP CALLER PUSH1 0x0 SWAP1 DUP2 MSTORE PUSH1 0x3 PUSH1 0x20 MSTORE PUSH1 0x40 DUP2 KECCAK256 PUSH1 0x2 ADD DUP1 SLOAD DUP4 SWAP3 SWAP1 PUSH2 0x3FA SWAP1 DUP5 SWAP1 PUSH2 0x1007 JUMP JUMPDEST SWAP1 SWAP2 SSTORE POP PUSH2 0x434 SWAP1 POP PUSH1 0x1 PUSH1 0x1 PUSH1 0xA0 SHL SUB PUSH32 0x0 AND CALLER DUP5 PUSH2 0xBF4 JUMP JUMPDEST POP POP CALLER PUSH1 0x0 SWAP1 DUP2 MSTORE PUSH1 0x3 PUSH1 0x20 MSTORE PUSH1 0x40 DUP2 KECCAK256 TIMESTAMP PUSH1 0x1 SWAP2 DUP3 ADD SSTORE SWAP1 SSTORE JUMP JUMPDEST CALLER PUSH1 0x0 SWAP1 DUP2 MSTORE PUSH1 0x3 PUSH1 0x20 DUP2 SWAP1 MSTORE PUSH1 0x40 SWAP1 SWAP2 KECCAK256 ADD SLOAD PUSH2 0x4FC JUMPI PUSH1 0x40 MLOAD PUSH3 0x461BCD PUSH1 0xE5 SHL DUP2 MSTORE PUSH1 0x20 PUSH1 0x4 DUP3 ADD MSTORE PUSH1 0x59 PUSH1 0x24 DUP3 ADD MSTORE PUSH32 0x4572726F723A20596F752063757272656E746C792068617665206E6F20726577 PUSH1 0x44 DUP3 ADD MSTORE PUSH32 0x6172647320746F20636C61696D2E20506C6561736520636865636B206261636B PUSH1 0x64 DUP3 ADD MSTORE PUSH32 0x2061742074686520656E64206F6620746865206D6F6E74682E00000000000000 PUSH1 0x84 DUP3 ADD MSTORE PUSH1 0xA4 ADD PUSH2 0x310 JUMP JUMPDEST CALLER PUSH1 0x0 DUP2 DUP2 MSTORE PUSH1 0x3 PUSH1 0x20 DUP2 SWAP1 MSTORE PUSH1 0x40 DUP3 KECCAK256 ADD DUP1 SLOAD SWAP2 SWAP1 SSTORE SWAP1 PUSH2 0x549 SWAP1 PUSH32 0x0 PUSH1 0x1 PUSH1 0x1 PUSH1 0xA0 SHL SUB AND SWAP1 DUP4 PUSH2 0xBF4 JUMP JUMPDEST DUP1 PUSH1 0x2 PUSH1 0x0 DUP3 DUP3 SLOAD PUSH2 0x55B SWAP2 SWAP1 PUSH2 0xFF0 JUMP JUMPDEST SWAP1 SWAP2 SSTORE POP POP POP JUMP JUMPDEST PUSH1 0x0 JUMPDEST PUSH1 0x4 SLOAD DUP2 LT ISZERO PUSH2 0x5B3 JUMPI PUSH2 0x5A0 PUSH1 0x4 DUP3 DUP2 SLOAD DUP2 LT PUSH2 0x586 JUMPI PUSH2 0x586 PUSH2 0x101F JUMP JUMPDEST PUSH1 0x0 SWAP2 DUP3 MSTORE PUSH1 0x20 SWAP1 SWAP2 KECCAK256 ADD SLOAD PUSH1 0x1 PUSH1 0x1 PUSH1 0xA0 SHL SUB AND PUSH2 0xBBA JUMP JUMPDEST POP DUP1 PUSH2 0x5AB DUP2 PUSH2 0x1035 JUMP JUMPDEST SWAP2 POP POP PUSH2 0x566 JUMP JUMPDEST POP PUSH1 0x0 DUP1 JUMPDEST PUSH1 0x4 SLOAD DUP2 LT ISZERO PUSH2 0x61F JUMPI PUSH1 0x3 PUSH1 0x0 PUSH1 0x4 DUP4 DUP2 SLOAD DUP2 LT PUSH2 0x5D9 JUMPI PUSH2 0x5D9 PUSH2 0x101F JUMP JUMPDEST PUSH1 0x0 SWAP2 DUP3 MSTORE PUSH1 0x20 DUP1 DUP4 KECCAK256 SWAP1 SWAP2 ADD SLOAD PUSH1 0x1 PUSH1 0x1 PUSH1 0xA0 SHL SUB AND DUP4 MSTORE DUP3 ADD SWAP3 SWAP1 SWAP3 MSTORE PUSH1 0x40 ADD SWAP1 KECCAK256 PUSH1 0x2 ADD SLOAD PUSH2 0x60B SWAP1 DUP4 PUSH2 0x1007 JUMP JUMPDEST SWAP2 POP DUP1 PUSH2 0x617 DUP2 PUSH2 0x1035 JUMP JUMPDEST SWAP2 POP POP PUSH2 0x5B8 JUMP JUMPDEST POP PUSH1 0x0 JUMPDEST PUSH1 0x4 SLOAD DUP2 LT ISZERO PUSH2 0x6EC JUMPI PUSH1 0x0 PUSH1 0x4 DUP3 DUP2 SLOAD DUP2 LT PUSH2 0x642 JUMPI PUSH2 0x642 PUSH2 0x101F JUMP JUMPDEST PUSH1 0x0 SWAP2 DUP3 MSTORE PUSH1 0x20 DUP1 DUP4 KECCAK256 SWAP1 SWAP2 ADD SLOAD PUSH1 0x1 PUSH1 0x1 PUSH1 0xA0 SHL SUB AND DUP1 DUP4 MSTORE PUSH1 0x3 SWAP1 SWAP2 MSTORE PUSH1 0x40 SWAP1 SWAP2 KECCAK256 PUSH1 0x2 ADD SLOAD SWAP1 SWAP2 POP DUP4 SWAP1 PUSH2 0x67A SWAP1 DUP7 SWAP1 PUSH2 0x104E JUMP JUMPDEST PUSH2 0x684 SWAP2 SWAP1 PUSH2 0x106D JUMP JUMPDEST PUSH1 0x1 PUSH1 0x1 PUSH1 0xA0 SHL SUB DUP3 AND PUSH1 0x0 SWAP1 DUP2 MSTORE PUSH1 0x3 PUSH1 0x20 DUP2 SWAP1 MSTORE PUSH1 0x40 DUP3 KECCAK256 ADD DUP1 SLOAD SWAP1 SWAP2 SWAP1 PUSH2 0x6AF SWAP1 DUP5 SWAP1 PUSH2 0x1007 JUMP JUMPDEST SWAP1 SWAP2 SSTORE POP POP PUSH1 0x1 PUSH1 0x1 PUSH1 0xA0 SHL SUB AND PUSH1 0x0 SWAP1 DUP2 MSTORE PUSH1 0x3 PUSH1 0x20 MSTORE PUSH1 0x40 DUP2 KECCAK256 PUSH1 0x2 DUP2 ADD SWAP2 SWAP1 SWAP2 SSTORE TIMESTAMP PUSH1 0x1 SWAP1 SWAP2 ADD SSTORE DUP1 PUSH2 0x6E4 DUP2 PUSH2 0x1035 JUMP JUMPDEST SWAP2 POP POP PUSH2 0x623 JUMP JUMPDEST POP DUP2 PUSH1 0x2 PUSH1 0x0 DUP3 DUP3 SLOAD PUSH2 0x6FF SWAP2 SWAP1 PUSH2 0x1007 JUMP JUMPDEST SWAP1 SWAP2 SSTORE POP POP POP POP JUMP JUMPDEST PUSH2 0x710 PUSH2 0xC60 JUMP JUMPDEST PUSH2 0x71A PUSH1 0x0 PUSH2 0xCBA JUMP JUMPDEST JUMP JUMPDEST PUSH2 0x725 DUP2 PUSH2 0xBBA JUMP JUMPDEST PUSH1 0x1 PUSH1 0x1 PUSH1 0xA0 SHL SUB DUP3 AND PUSH1 0x0 SWAP1 DUP2 MSTORE PUSH1 0x3 PUSH1 0x20 MSTORE PUSH1 0x40 DUP2 KECCAK256 PUSH1 0x2 ADD DUP1 SLOAD SWAP1 SWAP2 SWAP1 PUSH2 0x750 SWAP1 DUP5 SWAP1 PUSH2 0x1007 JUMP JUMPDEST SWAP1 SWAP2 SSTORE POP POP PUSH1 0x1 PUSH1 0x1 PUSH1 0xA0 SHL SUB AND PUSH1 0x0 SWAP1 DUP2 MSTORE PUSH1 0x3 PUSH1 0x20 MSTORE PUSH1 0x40 SWAP1 KECCAK256 TIMESTAMP PUSH1 0x1 SWAP1 SWAP2 ADD SSTORE JUMP JUMPDEST PUSH1 0x2 PUSH1 0x0 SLOAD SUB PUSH2 0x7C7 JUMPI PUSH1 0x40 MLOAD PUSH3 0x461BCD PUSH1 0xE5 SHL DUP2 MSTORE PUSH1 0x20 PUSH1 0x4 DUP3 ADD MSTORE PUSH1 0x1F PUSH1 0x24 DUP3 ADD MSTORE PUSH32 0x5265656E7472616E637947756172643A207265656E7472616E742063616C6C00 PUSH1 0x44 DUP3 ADD MSTORE PUSH1 0x64 ADD PUSH2 0x310 JUMP JUMPDEST PUSH1 0x2 PUSH1 0x0 SWAP1 DUP2 SSTORE CALLER DUP2 MSTORE PUSH1 0x3 PUSH1 0x20 MSTORE PUSH1 0x40 SWAP1 KECCAK256 SLOAD ISZERO PUSH2 0x81E JUMPI PUSH1 0x0 PUSH2 0x7EB CALLER PUSH2 0xBBA JUMP JUMPDEST CALLER PUSH1 0x0 SWAP1 DUP2 MSTORE PUSH1 0x3 PUSH1 0x20 MSTORE PUSH1 0x40 DUP2 KECCAK256 PUSH1 0x2 ADD DUP1 SLOAD SWAP3 SWAP4 POP DUP4 SWAP3 SWAP1 SWAP2 SWAP1 PUSH2 0x812 SWAP1 DUP5 SWAP1 PUSH2 0x1007 JUMP JUMPDEST SWAP1 SWAP2 SSTORE POP PUSH2 0x86E SWAP2 POP POP JUMP JUMPDEST PUSH1 0x4 DUP1 SLOAD PUSH1 0x1 DUP2 ADD DUP3 SSTORE PUSH1 0x0 SWAP2 SWAP1 SWAP2 MSTORE PUSH32 0x8A35ACFBC15FF81A39AE7D344FD709F28E8600B4AA8C65C6B64BFE7FE36BD19B ADD DUP1 SLOAD PUSH20 0xFFFFFFFFFFFFFFFFFFFFFFFFFFFFFFFFFFFFFFFF NOT AND CALLER OR SWAP1 SSTORE JUMPDEST PUSH1 0x0 DUP2 GT PUSH2 0x8CA JUMPI PUSH1 0x40 MLOAD PUSH3 0x461BCD PUSH1 0xE5 SHL DUP2 MSTORE PUSH1 0x20 PUSH1 0x4 DUP3 ADD MSTORE PUSH1 0x24 DUP1 DUP3 ADD MSTORE PUSH32 0x596F75206E65656420746F207374616B65206D6F7265207468616E203020636F PUSH1 0x44 DUP3 ADD MSTORE PUSH4 0x34B73997 PUSH1 0xE1 SHL PUSH1 0x64 DUP3 ADD MSTORE PUSH1 0x84 ADD PUSH2 0x310 JUMP JUMPDEST PUSH1 0x40 MLOAD PUSH4 0x70A08231 PUSH1 0xE0 SHL DUP2 MSTORE CALLER PUSH1 0x4 DUP3 ADD MSTORE DUP2 SWAP1 PUSH32 0x0 PUSH1 0x1 PUSH1 0x1 PUSH1 0xA0 SHL SUB AND SWAP1 PUSH4 0x70A08231 SWAP1 PUSH1 0x24 ADD PUSH1 0x20 PUSH1 0x40 MLOAD DUP1 DUP4 SUB DUP2 DUP7 GAS STATICCALL ISZERO DUP1 ISZERO PUSH2 0x930 JUMPI RETURNDATASIZE PUSH1 0x0 DUP1 RETURNDATACOPY RETURNDATASIZE PUSH1 0x0 REVERT JUMPDEST POP POP POP POP PUSH1 0x40 MLOAD RETURNDATASIZE PUSH1 0x1F NOT PUSH1 0x1F DUP3 ADD AND DUP3 ADD DUP1 PUSH1 0x40 MSTORE POP DUP2 ADD SWAP1 PUSH2 0x954 SWAP2 SWAP1 PUSH2 0x108F JUMP JUMPDEST LT ISZERO PUSH2 0x9C8 JUMPI PUSH1 0x40 MLOAD PUSH3 0x461BCD PUSH1 0xE5 SHL DUP2 MSTORE PUSH1 0x20 PUSH1 0x4 DUP3 ADD MSTORE PUSH1 0x32 PUSH1 0x24 DUP3 ADD MSTORE PUSH32 0x4572726F723A20596F7520646F6E2774206861766520656E6F75676820636F69 PUSH1 0x44 DUP3 ADD MSTORE PUSH32 0x6E7320696E20796F75722077616C6C6574210000000000000000000000000000 PUSH1 0x64 DUP3 ADD MSTORE PUSH1 0x84 ADD PUSH2 0x310 JUMP JUMPDEST PUSH1 0x40 MLOAD PUSH4 0x23B872DD PUSH1 0xE0 SHL DUP2 MSTORE CALLER PUSH1 0x4 DUP3 ADD MSTORE ADDRESS PUSH1 0x24 DUP3 ADD MSTORE PUSH1 0x44 DUP2 ADD DUP3 SWAP1 MSTORE PUSH32 0x0 PUSH1 0x1 PUSH1 0x1 PUSH1 0xA0 SHL SUB AND SWAP1 PUSH4 0x23B872DD SWAP1 PUSH1 0x64 ADD PUSH1 0x20 PUSH1 0x40 MLOAD DUP1 DUP4 SUB DUP2 PUSH1 0x0 DUP8 GAS CALL ISZERO DUP1 ISZERO PUSH2 0xA3B JUMPI RETURNDATASIZE PUSH1 0x0 DUP1 RETURNDATACOPY RETURNDATASIZE PUSH1 0x0 REVERT JUMPDEST POP POP POP POP PUSH1 0x40 MLOAD RETURNDATASIZE PUSH1 0x1F NOT PUSH1 0x1F DUP3 ADD AND DUP3 ADD DUP1 PUSH1 0x40 MSTORE POP DUP2 ADD SWAP1 PUSH2 0xA5F SWAP2 SWAP1 PUSH2 0x10A8 JUMP JUMPDEST PUSH2 0xAD1 JUMPI PUSH1 0x40 MLOAD PUSH3 0x461BCD PUSH1 0xE5 SHL DUP2 MSTORE PUSH1 0x20 PUSH1 0x4 DUP3 ADD MSTORE PUSH1 0x2D PUSH1 0x24 DUP3 ADD MSTORE PUSH32 0x4572726F723A20736F6D657468696E672077656E742077726F6E67207768656E PUSH1 0x44 DUP3 ADD MSTORE PUSH32 0x207472616E7366657272696E6700000000000000000000000000000000000000 PUSH1 0x64 DUP3 ADD MSTORE PUSH1 0x84 ADD PUSH2 0x310 JUMP JUMPDEST CALLER PUSH1 0x0 SWAP1 DUP2 MSTORE PUSH1 0x3 PUSH1 0x20 MSTORE PUSH1 0x40 DUP2 KECCAK256 DUP1 SLOAD DUP4 SWAP3 SWAP1 PUSH2 0xAF0 SWAP1 DUP5 SWAP1 PUSH2 0x1007 JUMP JUMPDEST SWAP1 SWAP2 SSTORE POP POP CALLER PUSH1 0x0 SWAP1 DUP2 MSTORE PUSH1 0x3 PUSH1 0x20 MSTORE PUSH1 0x40 DUP2 KECCAK256 TIMESTAMP PUSH1 0x1 SWAP2 DUP3 ADD SSTORE SWAP1 SSTORE POP JUMP JUMPDEST PUSH2 0xB18 PUSH2 0xC60 JUMP JUMPDEST DUP1 PUSH1 0x2 PUSH1 0x0 DUP3 DUP3 SLOAD PUSH2 0x55B SWAP2 SWAP1 PUSH2 0x1007 JUMP JUMPDEST PUSH2 0xB32 PUSH2 0xC60 JUMP JUMPDEST PUSH1 0x1 PUSH1 0x1 PUSH1 0xA0 SHL SUB DUP2 AND PUSH2 0xBAE JUMPI PUSH1 0x40 MLOAD PUSH3 0x461BCD PUSH1 0xE5 SHL DUP2 MSTORE PUSH1 0x20 PUSH1 0x4 DUP3 ADD MSTORE PUSH1 0x26 PUSH1 0x24 DUP3 ADD MSTORE PUSH32 0x4F776E61626C653A206E6577206F776E657220697320746865207A65726F2061 PUSH1 0x44 DUP3 ADD MSTORE PUSH32 0x6464726573730000000000000000000000000000000000000000000000000000 PUSH1 0x64 DUP3 ADD MSTORE PUSH1 0x84 ADD PUSH2 0x310 JUMP JUMPDEST PUSH2 0xBB7 DUP2 PUSH2 0xCBA JUMP JUMPDEST POP JUMP JUMPDEST PUSH1 0x1 PUSH1 0x1 PUSH1 0xA0 SHL SUB DUP2 AND PUSH1 0x0 SWAP1 DUP2 MSTORE PUSH1 0x3 PUSH1 0x20 MSTORE PUSH1 0x40 DUP2 KECCAK256 DUP1 SLOAD PUSH1 0x1 SWAP1 SWAP2 ADD SLOAD PUSH2 0xBE4 SWAP1 TIMESTAMP PUSH2 0xFF0 JUMP JUMPDEST PUSH2 0xBEE SWAP2 SWAP1 PUSH2 0x104E JUMP JUMPDEST SWAP3 SWAP2 POP POP JUMP JUMPDEST PUSH1 0x40 DUP1 MLOAD PUSH1 0x1 PUSH1 0x1 PUSH1 0xA0 SHL SUB DUP5 AND PUSH1 0x24 DUP3 ADD MSTORE PUSH1 0x44 DUP1 DUP3 ADD DUP5 SWAP1 MSTORE DUP3 MLOAD DUP1 DUP4 SUB SWAP1 SWAP2 ADD DUP2 MSTORE PUSH1 0x64 SWAP1 SWAP2 ADD SWAP1 SWAP2 MSTORE PUSH1 0x20 DUP2 ADD DUP1 MLOAD PUSH28 0xFFFFFFFFFFFFFFFFFFFFFFFFFFFFFFFFFFFFFFFFFFFFFFFFFFFFFFFF AND PUSH4 0xA9059CBB PUSH1 0xE0 SHL OR SWAP1 MSTORE PUSH2 0xC5B SWAP1 DUP5 SWAP1 PUSH2 0xD19 JUMP JUMPDEST POP POP POP JUMP JUMPDEST PUSH1 0x1 SLOAD PUSH1 0x1 PUSH1 0x1 PUSH1 0xA0 SHL SUB AND CALLER EQ PUSH2 0x71A JUMPI PUSH1 0x40 MLOAD PUSH3 0x461BCD PUSH1 0xE5 SHL DUP2 MSTORE PUSH1 0x20 PUSH1 0x4 DUP3 ADD DUP2 SWAP1 MSTORE PUSH1 0x24 DUP3 ADD MSTORE PUSH32 0x4F776E61626C653A2063616C6C6572206973206E6F7420746865206F776E6572 PUSH1 0x44 DUP3 ADD MSTORE PUSH1 0x64 ADD PUSH2 0x310 JUMP JUMPDEST PUSH1 0x1 DUP1 SLOAD PUSH1 0x1 PUSH1 0x1 PUSH1 0xA0 SHL SUB DUP4 DUP2 AND PUSH20 0xFFFFFFFFFFFFFFFFFFFFFFFFFFFFFFFFFFFFFFFF NOT DUP4 AND DUP2 OR SWAP1 SWAP4 SSTORE PUSH1 0x40 MLOAD SWAP2 AND SWAP2 SWAP1 DUP3 SWAP1 PUSH32 0x8BE0079C531659141344CD1FD0A4F28419497F9722A3DAAFE3B4186F6B6457E0 SWAP1 PUSH1 0x0 SWAP1 LOG3 POP POP JUMP JUMPDEST PUSH1 0x0 PUSH2 0xD6E DUP3 PUSH1 0x40 MLOAD DUP1 PUSH1 0x40 ADD PUSH1 0x40 MSTORE DUP1 PUSH1 0x20 DUP2 MSTORE PUSH1 0x20 ADD PUSH32 0x5361666545524332303A206C6F772D6C6576656C2063616C6C206661696C6564 DUP2 MSTORE POP DUP6 PUSH1 0x1 PUSH1 0x1 PUSH1 0xA0 SHL SUB AND PUSH2 0xDFE SWAP1 SWAP3 SWAP2 SWAP1 PUSH4 0xFFFFFFFF AND JUMP JUMPDEST DUP1 MLOAD SWAP1 SWAP2 POP ISZERO PUSH2 0xC5B JUMPI DUP1 DUP1 PUSH1 0x20 ADD SWAP1 MLOAD DUP2 ADD SWAP1 PUSH2 0xD8C SWAP2 SWAP1 PUSH2 0x10A8 JUMP JUMPDEST PUSH2 0xC5B JUMPI PUSH1 0x40 MLOAD PUSH3 0x461BCD PUSH1 0xE5 SHL DUP2 MSTORE PUSH1 0x20 PUSH1 0x4 DUP3 ADD MSTORE PUSH1 0x2A PUSH1 0x24 DUP3 ADD MSTORE PUSH32 0x5361666545524332303A204552433230206F7065726174696F6E20646964206E PUSH1 0x44 DUP3 ADD MSTORE PUSH32 0x6F74207375636365656400000000000000000000000000000000000000000000 PUSH1 0x64 DUP3 ADD MSTORE PUSH1 0x84 ADD PUSH2 0x310 JUMP JUMPDEST PUSH1 0x60 PUSH2 0xE0D DUP5 DUP5 PUSH1 0x0 DUP6 PUSH2 0xE17 JUMP JUMPDEST SWAP1 POP JUMPDEST SWAP4 SWAP3 POP POP POP JUMP JUMPDEST PUSH1 0x60 DUP3 SELFBALANCE LT ISZERO PUSH2 0xE8F JUMPI PUSH1 0x40 MLOAD PUSH3 0x461BCD PUSH1 0xE5 SHL DUP2 MSTORE PUSH1 0x20 PUSH1 0x4 DUP3 ADD MSTORE PUSH1 0x26 PUSH1 0x24 DUP3 ADD MSTORE PUSH32 0x416464726573733A20696E73756666696369656E742062616C616E636520666F PUSH1 0x44 DUP3 ADD MSTORE PUSH32 0x722063616C6C0000000000000000000000000000000000000000000000000000 PUSH1 0x64 DUP3 ADD MSTORE PUSH1 0x84 ADD PUSH2 0x310 JUMP JUMPDEST PUSH1 0x1 PUSH1 0x1 PUSH1 0xA0 SHL SUB DUP6 AND EXTCODESIZE PUSH2 0xEE6 JUMPI PUSH1 0x40 MLOAD PUSH3 0x461BCD PUSH1 0xE5 SHL DUP2 MSTORE PUSH1 0x20 PUSH1 0x4 DUP3 ADD MSTORE PUSH1 0x1D PUSH1 0x24 DUP3 ADD MSTORE PUSH32 0x416464726573733A2063616C6C20746F206E6F6E2D636F6E7472616374000000 PUSH1 0x44 DUP3 ADD MSTORE PUSH1 0x64 ADD PUSH2 0x310 JUMP JUMPDEST PUSH1 0x0 DUP1 DUP7 PUSH1 0x1 PUSH1 0x1 PUSH1 0xA0 SHL SUB AND DUP6 DUP8 PUSH1 0x40 MLOAD PUSH2 0xF02 SWAP2 SWAP1 PUSH2 0x10FA JUMP JUMPDEST PUSH1 0x0 PUSH1 0x40 MLOAD DUP1 DUP4 SUB DUP2 DUP6 DUP8 GAS CALL SWAP3 POP POP POP RETURNDATASIZE DUP1 PUSH1 0x0 DUP2 EQ PUSH2 0xF3F JUMPI PUSH1 0x40 MLOAD SWAP2 POP PUSH1 0x1F NOT PUSH1 0x3F RETURNDATASIZE ADD AND DUP3 ADD PUSH1 0x40 MSTORE RETURNDATASIZE DUP3 MSTORE RETURNDATASIZE PUSH1 0x0 PUSH1 0x20 DUP5 ADD RETURNDATACOPY PUSH2 0xF44 JUMP JUMPDEST PUSH1 0x60 SWAP2 POP JUMPDEST POP SWAP2 POP SWAP2 POP PUSH2 0xF54 DUP3 DUP3 DUP7 PUSH2 0xF5F JUMP JUMPDEST SWAP8 SWAP7 POP POP POP POP POP POP POP JUMP JUMPDEST PUSH1 0x60 DUP4 ISZERO PUSH2 0xF6E JUMPI POP DUP2 PUSH2 0xE10 JUMP JUMPDEST DUP3 MLOAD ISZERO PUSH2 0xF7E JUMPI DUP3 MLOAD DUP1 DUP5 PUSH1 0x20 ADD REVERT JUMPDEST DUP2 PUSH1 0x40 MLOAD PUSH3 0x461BCD PUSH1 0xE5 SHL DUP2 MSTORE PUSH1 0x4 ADD PUSH2 0x310 SWAP2 SWAP1 PUSH2 0x1116 JUMP JUMPDEST PUSH1 0x0 PUSH1 0x20 DUP3 DUP5 SUB SLT ISZERO PUSH2 0xFAA JUMPI PUSH1 0x0 DUP1 REVERT JUMPDEST POP CALLDATALOAD SWAP2 SWAP1 POP JUMP JUMPDEST PUSH1 0x0 PUSH1 0x20 DUP3 DUP5 SUB SLT ISZERO PUSH2 0xFC3 JUMPI PUSH1 0x0 DUP1 REVERT JUMPDEST DUP2 CALLDATALOAD PUSH1 0x1 PUSH1 0x1 PUSH1 0xA0 SHL SUB DUP2 AND DUP2 EQ PUSH2 0xE10 JUMPI PUSH1 0x0 DUP1 REVERT JUMPDEST PUSH4 0x4E487B71 PUSH1 0xE0 SHL PUSH1 0x0 MSTORE PUSH1 0x11 PUSH1 0x4 MSTORE PUSH1 0x24 PUSH1 0x0 REVERT JUMPDEST PUSH1 0x0 DUP3 DUP3 LT ISZERO PUSH2 0x1002 JUMPI PUSH2 0x1002 PUSH2 0xFDA JUMP JUMPDEST POP SUB SWAP1 JUMP JUMPDEST PUSH1 0x0 DUP3 NOT DUP3 GT ISZERO PUSH2 0x101A JUMPI PUSH2 0x101A PUSH2 0xFDA JUMP JUMPDEST POP ADD SWAP1 JUMP JUMPDEST PUSH4 0x4E487B71 PUSH1 0xE0 SHL PUSH1 0x0 MSTORE PUSH1 0x32 PUSH1 0x4 MSTORE PUSH1 0x24 PUSH1 0x0 REVERT JUMPDEST PUSH1 0x0 PUSH1 0x1 DUP3 ADD PUSH2 0x1047 JUMPI PUSH2 0x1047 PUSH2 0xFDA JUMP JUMPDEST POP PUSH1 0x1 ADD SWAP1 JUMP JUMPDEST PUSH1 0x0 DUP2 PUSH1 0x0 NOT DIV DUP4 GT DUP3 ISZERO ISZERO AND ISZERO PUSH2 0x1068 JUMPI PUSH2 0x1068 PUSH2 0xFDA JUMP JUMPDEST POP MUL SWAP1 JUMP JUMPDEST PUSH1 0x0 DUP3 PUSH2 0x108A JUMPI PUSH4 0x4E487B71 PUSH1 0xE0 SHL PUSH1 0x0 MSTORE PUSH1 0x12 PUSH1 0x4 MSTORE PUSH1 0x24 PUSH1 0x0 REVERT JUMPDEST POP DIV SWAP1 JUMP JUMPDEST PUSH1 0x0 PUSH1 0x20 DUP3 DUP5 SUB SLT ISZERO PUSH2 0x10A1 JUMPI PUSH1 0x0 DUP1 REVERT JUMPDEST POP MLOAD SWAP2 SWAP1 POP JUMP JUMPDEST PUSH1 0x0 PUSH1 0x20 DUP3 DUP5 SUB SLT ISZERO PUSH2 0x10BA JUMPI PUSH1 0x0 DUP1 REVERT JUMPDEST DUP2 MLOAD DUP1 ISZERO ISZERO DUP2 EQ PUSH2 0xE10 JUMPI PUSH1 0x0 DUP1 REVERT JUMPDEST PUSH1 0x0 JUMPDEST DUP4 DUP2 LT ISZERO PUSH2 0x10E5 JUMPI DUP2 DUP2 ADD MLOAD DUP4 DUP3 ADD MSTORE PUSH1 0x20 ADD PUSH2 0x10CD JUMP JUMPDEST DUP4 DUP2 GT ISZERO PUSH2 0x10F4 JUMPI PUSH1 0x0 DUP5 DUP5 ADD MSTORE JUMPDEST POP POP POP POP JUMP JUMPDEST PUSH1 0x0 DUP3 MLOAD PUSH2 0x110C DUP2 DUP5 PUSH1 0x20 DUP8 ADD PUSH2 0x10CA JUMP JUMPDEST SWAP2 SWAP1 SWAP2 ADD SWAP3 SWAP2 POP POP JUMP JUMPDEST PUSH1 0x20 DUP2 MSTORE PUSH1 0x0 DUP3 MLOAD DUP1 PUSH1 0x20 DUP5 ADD MSTORE PUSH2 0x1135 DUP2 PUSH1 0x40 DUP6 ADD PUSH1 0x20 DUP8 ADD PUSH2 0x10CA JUMP JUMPDEST PUSH1 0x1F ADD PUSH1 0x1F NOT AND SWAP2 SWAP1 SWAP2 ADD PUSH1 0x40 ADD SWAP3 SWAP2 POP POP JUMP INVALID LOG2 PUSH5 0x6970667358 0x22 SLT KECCAK256 PUSH17 0x48D2DB90495FBF76E05F7972C41E445367 0xCC SWAP5 SWAP15 CALLDATACOPY 0xD3 0x5D 0xE8 0xBB 0xC0 SWAP3 0xA7 PUSH22 0x33FE64736F6C634300080D0033000000000000000000 "
    },
    "gasEstimates": {
      "creation": {
        "codeDepositCost": "895800",
        "executionCost": "infinite",
        "totalCost": "infinite"
      },
      "external": {
        "availableRewards(address)": "2591",
        "claimRewards()": "infinite",
        "gcoin()": "infinite",
        "getStakedTokens(address)": "2514",
        "newRewardsTotal(uint256)": "26726",
        "owner()": "2354",
        "renounceOwnership()": "infinite",
        "scoreToRewards(uint256)": "infinite",
        "seeRewardScore(address)": "2586",
        "stake(uint256)": "infinite",
        "stakers(address)": "8940",
        "transferOwnership(address)": "28355",
        "updateRewardScore(address)": "51426",
        "viewRewardsTotal()": "2326",
        "withdraw(uint256)": "infinite"
      },
      "internal": {
        "calculateRewards(address)": "4495"
      }
    },
    "methodIdentifiers": {
      "availableRewards(address)": "f854a27f",
      "claimRewards()": "372500ab",
      "gcoin()": "8c9c1158",
      "getStakedTokens(address)": "63c28db1",
      "newRewardsTotal(uint256)": "ee5fa713",
      "owner()": "8da5cb5b",
      "renounceOwnership()": "715018a6",
      "scoreToRewards(uint256)": "5f05927a",
      "seeRewardScore(address)": "a13e1fc3",
      "stake(uint256)": "a694fc3a",
      "stakers(address)": "9168ae72",
      "transferOwnership(address)": "f2fde38b",
      "updateRewardScore(address)": "9d43e5e0",
      "viewRewardsTotal()": "6e83ca62",
      "withdraw(uint256)": "2e1a7d4d"
    }
  },
  "storageLayout": {
    "storage": [
      {
        "astId": 571,
        "contract": "gcoin-staking.sol:gcoinStaking",
        "label": "_status",
        "offset": 0,
        "slot": "0",
        "type": "t_uint256"
      },
      {
        "astId": 455,
        "contract": "gcoin-staking.sol:gcoinStaking",
        "label": "_owner",
        "offset": 0,
        "slot": "1",
        "type": "t_address"
      },
      {
        "astId": 39,
        "contract": "gcoin-staking.sol:gcoinStaking",
        "label": "rewardsTotal",
        "offset": 0,
        "slot": "2",
        "type": "t_uint256"
      },
      {
        "astId": 44,
        "contract": "gcoin-staking.sol:gcoinStaking",
        "label": "stakers",
        "offset": 0,
        "slot": "3",
        "type": "t_mapping(t_address,t_struct(Staker)36_storage)"
      },
      {
        "astId": 47,
        "contract": "gcoin-staking.sol:gcoinStaking",
        "label": "staker_addresses",
        "offset": 0,
        "slot": "4",
        "type": "t_array(t_address)dyn_storage"
      }
    ],
    "types": {
      "t_address": {
        "encoding": "inplace",
        "label": "address",
        "numberOfBytes": "20"
      },
      "t_array(t_address)dyn_storage": {
        "base": "t_address",
        "encoding": "dynamic_array",
        "label": "address[]",
        "numberOfBytes": "32"
      },
      "t_mapping(t_address,t_struct(Staker)36_storage)": {
        "encoding": "mapping",
        "key": "t_address",
        "label": "mapping(address => struct gcoinStaking.Staker)",
        "numberOfBytes": "32",
        "value": "t_struct(Staker)36_storage"
      },
      "t_struct(Staker)36_storage": {
        "encoding": "inplace",
        "label": "struct gcoinStaking.Staker",
        "members": [
          {
            "astId": 29,
            "contract": "gcoin-staking.sol:gcoinStaking",
            "label": "totalAmountStaked",
            "offset": 0,
            "slot": "0",
            "type": "t_uint256"
          },
          {
            "astId": 31,
            "contract": "gcoin-staking.sol:gcoinStaking",
            "label": "timeLastUpdated",
            "offset": 0,
            "slot": "1",
            "type": "t_uint256"
          },
          {
            "astId": 33,
            "contract": "gcoin-staking.sol:gcoinStaking",
            "label": "rewardScore",
            "offset": 0,
            "slot": "2",
            "type": "t_uint256"
          },
          {
            "astId": 35,
            "contract": "gcoin-staking.sol:gcoinStaking",
            "label": "unclaimedRewards",
            "offset": 0,
            "slot": "3",
            "type": "t_uint256"
          }
        ],
        "numberOfBytes": "128"
      },
      "t_uint256": {
        "encoding": "inplace",
        "label": "uint256",
        "numberOfBytes": "32"
      }
    }
  },
  "userdoc": {
    "kind": "user",
    "methods": {},
    "version": 1
  }
}